{
  "contractName": "Auction",
  "abi": [
    {
      "anonymous": false,
      "inputs": [
        {
          "indexed": true,
          "internalType": "uint256",
          "name": "nftId",
          "type": "uint256"
        },
        {
          "indexed": true,
          "internalType": "address",
          "name": "bidder",
          "type": "address"
        },
        {
          "indexed": false,
          "internalType": "uint256",
          "name": "amount",
          "type": "uint256"
        },
        {
          "indexed": false,
          "internalType": "contract IERC721_contract",
          "name": "nft",
          "type": "address"
        }
      ],
      "name": "Bid",
      "type": "event"
    },
    {
      "anonymous": false,
      "inputs": [
        {
          "indexed": false,
          "internalType": "address",
          "name": "winner",
          "type": "address"
        },
        {
          "indexed": false,
          "internalType": "uint256",
          "name": "amount",
          "type": "uint256"
        }
      ],
      "name": "End",
      "type": "event"
    },
    {
      "anonymous": false,
      "inputs": [
        {
          "indexed": true,
          "internalType": "uint256",
          "name": "nftId",
          "type": "uint256"
        },
        {
          "indexed": true,
          "internalType": "address",
          "name": "seller",
          "type": "address"
        },
        {
          "indexed": true,
          "internalType": "uint256",
          "name": "startTimeStamp",
          "type": "uint256"
        },
        {
          "indexed": false,
          "internalType": "uint256",
          "name": "time",
          "type": "uint256"
        }
      ],
      "name": "Start",
      "type": "event"
    },
    {
      "inputs": [
        {
          "internalType": "uint256",
          "name": "",
          "type": "uint256"
        }
      ],
      "name": "allAuctions",
      "outputs": [
        {
          "internalType": "uint256",
          "name": "nftId",
          "type": "uint256"
        },
        {
          "internalType": "bool",
          "name": "auctionStarted",
          "type": "bool"
        },
        {
          "internalType": "bool",
          "name": "auctionEnded",
          "type": "bool"
        },
        {
          "internalType": "contract IERC721_contract",
          "name": "nft",
          "type": "address"
        },
        {
          "internalType": "address payable",
          "name": "seller",
          "type": "address"
        },
        {
          "internalType": "uint256",
          "name": "duration",
          "type": "uint256"
        },
        {
          "internalType": "uint256",
          "name": "endAt",
          "type": "uint256"
        },
        {
          "internalType": "address",
          "name": "highestBidder",
          "type": "address"
        },
        {
          "internalType": "uint256",
          "name": "highestBid",
          "type": "uint256"
        }
      ],
      "stateMutability": "view",
      "type": "function",
      "constant": true
    },
    {
      "inputs": [],
      "name": "auctioncounter",
      "outputs": [
        {
          "internalType": "uint256",
          "name": "",
          "type": "uint256"
        }
      ],
      "stateMutability": "view",
      "type": "function",
      "constant": true
    },
    {
      "inputs": [
        {
          "internalType": "contract IERC721_contract",
          "name": "_nft",
          "type": "address"
        },
        {
          "internalType": "uint256",
          "name": "_nftId",
          "type": "uint256"
        },
        {
          "internalType": "uint256",
          "name": "_startingBid",
          "type": "uint256"
        },
        {
          "internalType": "uint256",
          "name": "time",
          "type": "uint256"
        }
      ],
      "name": "start",
      "outputs": [],
      "stateMutability": "nonpayable",
      "type": "function"
    },
    {
      "inputs": [
        {
          "internalType": "uint256",
          "name": "_nftId",
          "type": "uint256"
        }
      ],
      "name": "bid",
      "outputs": [],
      "stateMutability": "payable",
      "type": "function",
      "payable": true
    },
    {
      "inputs": [
        {
          "internalType": "uint256",
          "name": "_nftId",
          "type": "uint256"
        }
      ],
      "name": "end",
      "outputs": [],
      "stateMutability": "nonpayable",
      "type": "function"
    }
  ],
  "bytecode": "0x6080604052600060015534801561001557600080fd5b50610ab1806100256000396000f3fe60806040526004361061004a5760003560e01c80630ad245281461004f578063165c588114610071578063454a2ab3146100af57806395282732146100c2578063b76a3b5a146100e4575b600080fd5b34801561005b57600080fd5b5061006f61006a36600461084e565b610104565b005b34801561007d57600080fd5b5061009161008c36600461084e565b61037e565b6040516100a6999897969594939291906109cf565b60405180910390f35b61006f6100bd36600461084e565b6103da565b3480156100ce57600080fd5b506100d76105a5565b6040516100a691906109c6565b3480156100f057600080fd5b5061006f6100ff366004610809565b6105ab565b600081815260208190526040902060019081015460ff1615151461012757600080fd5b60008181526020819052604090206004015442101561014557600080fd5b600081815260208190526040902060010154610100900460ff161561016957600080fd5b6000818152602081905260409020600201546001600160a01b0316331461018f57600080fd5b600081815260208190526040902060018101805460ff1961ff001990911661010017169055600501546001600160a01b03161561029c57600081815260208190526040908190206001810154600582015491549251632142170760e11b81526001600160a01b03620100009092048216936342842e0e9361021893309391169190600401610866565b600060405180830381600087803b15801561023257600080fd5b505af1158015610246573d6000803e3d6000fd5b505050600082815260208190526040808220600281015460069091015491516001600160a01b03909116935081156108fc0292818181858888f19350505050158015610296573d6000803e3d6000fd5b50610321565b600081815260208190526040908190206001810154600282015491549251632142170760e11b81526001600160a01b03620100009092048216936342842e0e936102ee93309391169190600401610866565b600060405180830381600087803b15801561030857600080fd5b505af115801561031c573d6000803e3d6000fd5b505050505b60008181526020819052604090819020600581015460069091015491517f7d7570b046e5ead3a4f3fbc9fa2445113625a1e79823776146316bafed6b8cc592610373926001600160a01b03169161088a565b60405180910390a150565b6000602081905290815260409020805460018201546002830154600384015460048501546005860154600690960154949560ff808616966101008704909116956001600160a01b03620100009091048116958116949392169089565b600081815260208190526040902060019081015460ff161515146104195760405162461bcd60e51b815260040161041090610920565b60405180910390fd5b60008181526020819052604090206004015442106104495760405162461bcd60e51b815260040161041090610970565b60008181526020819052604090206006015434116104795760405162461bcd60e51b8152600401610410906108f7565b6000818152602081905260409020600201546001600160a01b03163314156104b35760405162461bcd60e51b81526004016104109061098f565b6000818152602081905260409020600501546001600160a01b03161561052357600081815260208190526040808220600581015460069091015491516001600160a01b039091169282156108fc02929190818181858888f19350505050158015610521573d6000803e3d6000fd5b505b600081815260208190526040908190206005810180546001600160a01b0319163390811790915534600683018190558254600190930154935191937fec85e6e86fabc4c703529b570fb5eb567dad69ddbf7901bc0fd28b38b93de7f39261059a92916201000090046001600160a01b031690610a17565b60405180910390a350565b60015481565b60008381526020819052604090206001015460ff16156105dd5760405162461bcd60e51b8152600401610410906108a3565b6105e56107bd565b838152600160208201819052600060408301526001600160a01b0386166060830152336080830152610618908390610a46565b60a082018190526106299042610a2e565b60c08201526101008101839052606081015181516040516323b872dd60e01b81526001600160a01b03909216916323b872dd9161066c9133913091600401610866565b600060405180830381600087803b15801561068657600080fd5b505af115801561069a573d6000803e3d6000fd5b50505060008581526020818152604080832085518155918501516001808401805493880151606089015160ff199095169315159390931761ff00191661010093151584021762010000600160b01b031916620100006001600160a01b039586160217905560808701516002850180546001600160a01b031990811692861692909217905560a0880151600386015560c0880151600486015560e08801516005860180549092169416939093179092558501516006909201919091558054909250829190610768908390610a2e565b9250508190555042336001600160a01b0316857f973000f879795698183500fd44813f215cce616dba1505c05db189bc419bf2418460a001516040516107ae91906109c6565b60405180910390a45050505050565b6040805161012081018252600080825260208201819052918101829052606081018290526080810182905260a0810182905260c0810182905260e0810182905261010081019190915290565b6000806000806080858703121561081e578384fd5b84356001600160a01b0381168114610834578485fd5b966020860135965060408601359560600135945092505050565b60006020828403121561085f578081fd5b5035919050565b6001600160a01b039384168152919092166020820152604081019190915260600190565b6001600160a01b03929092168252602082015260400190565b60208082526034908201527f61756374696f6e2073686f756c64206e6f74206861766520616c7265616479206040820152731cdd185c9d195908199bdc881d1a1a5cc813919560621b606082015260800190565b6020808252600f908201526e1d985b1d59480f081a1a59da195cdd608a1b604082015260600190565b60208082526030908201527f61756374696f6e2073686f756c64206861766520616c7265616479207374617260408201526f1d195908199bdc881d1a1a5cc813919560821b606082015260800190565b602080825260059082015264195b99195960da1b604082015260600190565b60208082526019908201527f73656c6c6572206e6f7420616c6c6f77656420746f2062696400000000000000604082015260600190565b90815260200190565b988952961515602089015294151560408801526001600160a01b039384166060880152918316608087015260a086015260c08501521660e08301526101008201526101200190565b9182526001600160a01b0316602082015260400190565b60008219821115610a4157610a41610a65565b500190565b6000816000190483118215151615610a6057610a60610a65565b500290565b634e487b7160e01b600052601160045260246000fdfea26469706673582212203ac2f6c91b0bf5858c7f88bc2ea49d1319922d3fec547b48ace654d754dac9ba64736f6c63430008010033",
  "immutableReferences": {},
  "source": "// SPDX-License-Identifier: MIT\r\npragma solidity ^0.8.1;\r\n\r\ninterface IERC721_contract {\r\n    function safeTransferFrom(\r\n        address from,\r\n        address to,\r\n        uint256 tokenId\r\n    ) external;\r\n\r\n    function transferFrom(\r\n        address,\r\n        address,\r\n        uint256\r\n    ) external;\r\n\r\n    function approveContract(address, uint256) external;\r\n}\r\n\r\ncontract Auction {\r\n    struct auctionDetails {\r\n        uint256 nftId;\r\n        bool auctionStarted;\r\n        bool auctionEnded;\r\n        IERC721_contract nft;\r\n        address payable seller;\r\n        uint256 duration;\r\n        uint256 endAt;\r\n        address highestBidder;\r\n        uint256 highestBid;\r\n    }\r\n\r\n    //auctionDetails[] public auctions;\r\n\r\n    mapping(uint256 => auctionDetails) public allAuctions;\r\n    uint256 public auctioncounter = 0;\r\n\r\n    event Start(\r\n        uint256 indexed nftId,\r\n        address indexed seller,\r\n        uint256 indexed startTimeStamp,\r\n        uint256 time\r\n    );\r\n    event Bid(\r\n        uint256 indexed nftId,\r\n        address indexed bidder,\r\n        uint256 amount,\r\n        IERC721_contract nft\r\n    );\r\n    event End(address winner, uint256 amount);\r\n\r\n    function start(\r\n        IERC721_contract _nft,\r\n        uint256 _nftId,\r\n        uint256 _startingBid,\r\n        uint256 time\r\n    ) external {\r\n        require(\r\n            allAuctions[_nftId].auctionStarted == false,\r\n            \"auction should not have already started for this NFT\"\r\n        );\r\n        auctionDetails memory auction;\r\n        auction.nftId = _nftId;\r\n        auction.auctionStarted = true;\r\n        auction.auctionEnded = false;\r\n        auction.nft = _nft;\r\n        auction.seller = payable(msg.sender);\r\n        auction.duration = time * (1 seconds);\r\n        auction.endAt = block.timestamp + auction.duration;\r\n        auction.highestBid = _startingBid;\r\n\r\n        auction.nft.transferFrom(msg.sender, address(this), auction.nftId);\r\n        allAuctions[_nftId] = auction;\r\n        auctioncounter += 1;\r\n        emit Start(_nftId, msg.sender, block.timestamp, auction.duration);\r\n    }\r\n\r\n    function bid(uint256 _nftId) external payable {\r\n        require(\r\n            allAuctions[_nftId].auctionStarted == true,\r\n            \"auction should have already started for this NFT\"\r\n        );\r\n        require(block.timestamp < allAuctions[_nftId].endAt, \"ended\");\r\n        require(msg.value > allAuctions[_nftId].highestBid, \"value < highest\");\r\n        require(\r\n            msg.sender != allAuctions[_nftId].seller,\r\n            \"seller not allowed to bid\"\r\n        );\r\n\r\n        if (allAuctions[_nftId].highestBidder != address(0)) {\r\n            payable(allAuctions[_nftId].highestBidder).transfer(\r\n                allAuctions[_nftId].highestBid\r\n            );\r\n        }\r\n\r\n        allAuctions[_nftId].highestBidder = msg.sender;\r\n        allAuctions[_nftId].highestBid = msg.value;\r\n\r\n        emit Bid(\r\n            allAuctions[_nftId].nftId,\r\n            msg.sender,\r\n            msg.value,\r\n            allAuctions[_nftId].nft\r\n        );\r\n    }\r\n\r\n    function end(uint256 _nftId) external {\r\n        require(allAuctions[_nftId].auctionStarted == true);\r\n        require(block.timestamp >= allAuctions[_nftId].endAt);\r\n        require(allAuctions[_nftId].auctionEnded == false);\r\n        require(msg.sender == allAuctions[_nftId].seller);\r\n\r\n        allAuctions[_nftId].auctionEnded = true;\r\n        allAuctions[_nftId].auctionStarted = false;\r\n\r\n        if (allAuctions[_nftId].highestBidder != address(0)) {\r\n            allAuctions[_nftId].nft.safeTransferFrom(\r\n                address(this),\r\n                allAuctions[_nftId].highestBidder,\r\n                allAuctions[_nftId].nftId\r\n            );\r\n            allAuctions[_nftId].seller.transfer(allAuctions[_nftId].highestBid);\r\n        } else {\r\n            allAuctions[_nftId].nft.safeTransferFrom(\r\n                address(this),\r\n                allAuctions[_nftId].seller,\r\n                allAuctions[_nftId].nftId\r\n            );\r\n        }\r\n\r\n        emit End(\r\n            allAuctions[_nftId].highestBidder,\r\n            allAuctions[_nftId].highestBid\r\n        );\r\n    }\r\n}\r\n",
  "sourcePath": "D:\\ETHINdia\\NFT_DAPP\\client\\contracts\\Auction.sol",
  "compiler": {
    "name": "solc",
    "version": "0.8.1+commit.df193b15.Emscripten.clang"
  },
  "schemaVersion": "3.4.11",
  "updatedAt": "2022-12-03T07:44:17.326Z",
  "networkType": "ethereum",
  "devdoc": {
    "kind": "dev",
    "methods": {},
    "version": 1
  },
  "userdoc": {
    "kind": "user",
    "methods": {},
    "version": 1
  }
}