{
  "contractName": "morter",
  "abi": [
    {
      "inputs": [
        {
          "internalType": "contract propNFT",
          "name": "_nftcontract",
          "type": "address"
        }
      ],
      "stateMutability": "nonpayable",
      "type": "constructor"
    },
    {
      "inputs": [
        {
          "internalType": "uint256",
          "name": "",
          "type": "uint256"
        }
      ],
      "name": "allproperties",
      "outputs": [
        {
          "internalType": "uint256",
          "name": "property_id",
          "type": "uint256"
        },
        {
          "internalType": "uint256",
          "name": "price",
          "type": "uint256"
        },
        {
          "internalType": "uint256",
          "name": "status",
          "type": "uint256"
        },
        {
          "internalType": "address",
          "name": "owner",
          "type": "address"
        },
        {
          "internalType": "address",
          "name": "mortgager",
          "type": "address"
        },
        {
          "internalType": "uint256",
          "name": "mortgageamt",
          "type": "uint256"
        },
        {
          "internalType": "uint256",
          "name": "downpayment",
          "type": "uint256"
        },
        {
          "internalType": "uint256",
          "name": "capital_to_be_raised",
          "type": "uint256"
        },
        {
          "internalType": "uint256",
          "name": "emi_to_be_paid",
          "type": "uint256"
        },
        {
          "internalType": "bool",
          "name": "firstEmiDone",
          "type": "bool"
        },
        {
          "internalType": "uint256",
          "name": "totalInterestMonths",
          "type": "uint256"
        },
        {
          "internalType": "uint256",
          "name": "interestMonthsLeft",
          "type": "uint256"
        },
        {
          "internalType": "uint256",
          "name": "nftTokenId",
          "type": "uint256"
        },
        {
          "internalType": "uint256",
          "name": "lastEMItimestamp",
          "type": "uint256"
        }
      ],
      "stateMutability": "view",
      "type": "function",
      "constant": true
    },
    {
      "inputs": [
        {
          "internalType": "uint256",
          "name": "",
          "type": "uint256"
        }
      ],
      "name": "dropStatus",
      "outputs": [
        {
          "internalType": "bool",
          "name": "",
          "type": "bool"
        }
      ],
      "stateMutability": "view",
      "type": "function",
      "constant": true
    },
    {
      "inputs": [
        {
          "internalType": "uint256",
          "name": "",
          "type": "uint256"
        }
      ],
      "name": "droppedProperties",
      "outputs": [
        {
          "internalType": "uint256",
          "name": "",
          "type": "uint256"
        }
      ],
      "stateMutability": "view",
      "type": "function",
      "constant": true
    },
    {
      "inputs": [],
      "name": "propertycounter",
      "outputs": [
        {
          "internalType": "uint256",
          "name": "",
          "type": "uint256"
        }
      ],
      "stateMutability": "view",
      "type": "function",
      "constant": true
    },
    {
      "inputs": [],
      "name": "tc",
      "outputs": [
        {
          "internalType": "address",
          "name": "",
          "type": "address"
        }
      ],
      "stateMutability": "view",
      "type": "function",
      "constant": true
    },
    {
      "inputs": [
        {
          "internalType": "uint256",
          "name": "_price",
          "type": "uint256"
        },
        {
          "internalType": "uint256",
          "name": "tokenId",
          "type": "uint256"
        }
      ],
      "name": "listProperty",
      "outputs": [],
      "stateMutability": "nonpayable",
      "type": "function"
    },
    {
      "inputs": [
        {
          "internalType": "uint256",
          "name": "property_id",
          "type": "uint256"
        },
        {
          "internalType": "uint256",
          "name": "payToSeller",
          "type": "uint256"
        },
        {
          "internalType": "uint256",
          "name": "payToTC",
          "type": "uint256"
        }
      ],
      "name": "direct_buy_property",
      "outputs": [],
      "stateMutability": "payable",
      "type": "function",
      "payable": true
    },
    {
      "inputs": [
        {
          "internalType": "uint256",
          "name": "property_id",
          "type": "uint256"
        },
        {
          "internalType": "uint256",
          "name": "mortgage_amt",
          "type": "uint256"
        },
        {
          "internalType": "uint256",
          "name": "_emi",
          "type": "uint256"
        },
        {
          "internalType": "uint256",
          "name": "interestMonths",
          "type": "uint256"
        }
      ],
      "name": "initiate_mortgage",
      "outputs": [],
      "stateMutability": "payable",
      "type": "function",
      "payable": true
    },
    {
      "inputs": [
        {
          "internalType": "uint256",
          "name": "property_id",
          "type": "uint256"
        },
        {
          "internalType": "uint256",
          "name": "rf_amount",
          "type": "uint256"
        }
      ],
      "name": "riskfreeinvest",
      "outputs": [],
      "stateMutability": "payable",
      "type": "function",
      "payable": true
    },
    {
      "inputs": [
        {
          "internalType": "uint256",
          "name": "property_id",
          "type": "uint256"
        }
      ],
      "name": "trade",
      "outputs": [],
      "stateMutability": "payable",
      "type": "function",
      "payable": true
    },
    {
      "inputs": [
        {
          "internalType": "uint256",
          "name": "property_id",
          "type": "uint256"
        },
        {
          "internalType": "uint256",
          "name": "penaltyAmount",
          "type": "uint256"
        }
      ],
      "name": "payEmi",
      "outputs": [],
      "stateMutability": "payable",
      "type": "function",
      "payable": true
    },
    {
      "inputs": [
        {
          "internalType": "uint256",
          "name": "property_id",
          "type": "uint256"
        }
      ],
      "name": "snatchNFT",
      "outputs": [],
      "stateMutability": "payable",
      "type": "function",
      "payable": true
    },
    {
      "inputs": [
        {
          "internalType": "uint256",
          "name": "property_id",
          "type": "uint256"
        }
      ],
      "name": "getDropProperty",
      "outputs": [],
      "stateMutability": "nonpayable",
      "type": "function"
    },
    {
      "inputs": [],
      "name": "getAllDroppedProperties",
      "outputs": [
        {
          "internalType": "uint256[]",
          "name": "",
          "type": "uint256[]"
        }
      ],
      "stateMutability": "view",
      "type": "function",
      "constant": true
    },
    {
      "inputs": [],
      "name": "getContractBalance",
      "outputs": [
        {
          "internalType": "uint256",
          "name": "",
          "type": "uint256"
        }
      ],
      "stateMutability": "view",
      "type": "function",
      "constant": true
    },
    {
      "inputs": [
        {
          "internalType": "uint256",
          "name": "property_id",
          "type": "uint256"
        }
      ],
      "name": "getHouseDetails",
      "outputs": [
        {
          "components": [
            {
              "internalType": "uint256",
              "name": "property_id",
              "type": "uint256"
            },
            {
              "internalType": "uint256",
              "name": "price",
              "type": "uint256"
            },
            {
              "internalType": "uint256",
              "name": "status",
              "type": "uint256"
            },
            {
              "internalType": "address",
              "name": "owner",
              "type": "address"
            },
            {
              "internalType": "address",
              "name": "mortgager",
              "type": "address"
            },
            {
              "internalType": "uint256",
              "name": "mortgageamt",
              "type": "uint256"
            },
            {
              "internalType": "uint256",
              "name": "downpayment",
              "type": "uint256"
            },
            {
              "internalType": "uint256",
              "name": "capital_to_be_raised",
              "type": "uint256"
            },
            {
              "internalType": "uint256",
              "name": "emi_to_be_paid",
              "type": "uint256"
            },
            {
              "internalType": "address[]",
              "name": "risk_free_investors",
              "type": "address[]"
            },
            {
              "internalType": "uint256[]",
              "name": "riskFreeInvestorPayment",
              "type": "uint256[]"
            },
            {
              "internalType": "uint256[]",
              "name": "riskFreeInvestorInvestment",
              "type": "uint256[]"
            },
            {
              "internalType": "bool",
              "name": "firstEmiDone",
              "type": "bool"
            },
            {
              "internalType": "uint256",
              "name": "totalInterestMonths",
              "type": "uint256"
            },
            {
              "internalType": "uint256",
              "name": "interestMonthsLeft",
              "type": "uint256"
            },
            {
              "internalType": "uint256",
              "name": "nftTokenId",
              "type": "uint256"
            },
            {
              "internalType": "uint256",
              "name": "lastEMItimestamp",
              "type": "uint256"
            }
          ],
          "internalType": "struct morter.House_property",
          "name": "",
          "type": "tuple"
        }
      ],
      "stateMutability": "view",
      "type": "function",
      "constant": true
    },
    {
      "inputs": [
        {
          "internalType": "uint256",
          "name": "property_id",
          "type": "uint256"
        }
      ],
      "name": "getAddresses",
      "outputs": [
        {
          "internalType": "address[]",
          "name": "",
          "type": "address[]"
        }
      ],
      "stateMutability": "view",
      "type": "function",
      "constant": true
    },
    {
      "inputs": [
        {
          "internalType": "uint256",
          "name": "property_id",
          "type": "uint256"
        }
      ],
      "name": "getRiskFreeInvestorInvestment",
      "outputs": [
        {
          "internalType": "uint256[]",
          "name": "",
          "type": "uint256[]"
        }
      ],
      "stateMutability": "view",
      "type": "function",
      "constant": true
    },
    {
      "inputs": [
        {
          "internalType": "uint256",
          "name": "property_id",
          "type": "uint256"
        }
      ],
      "name": "getRiskFreeInvestorPayment",
      "outputs": [
        {
          "internalType": "uint256[]",
          "name": "",
          "type": "uint256[]"
        }
      ],
      "stateMutability": "view",
      "type": "function",
      "constant": true
    },
    {
      "inputs": [],
      "name": "depositEther",
      "outputs": [],
      "stateMutability": "payable",
      "type": "function",
      "payable": true
    },
    {
      "inputs": [],
      "name": "withdrawEther",
      "outputs": [],
      "stateMutability": "payable",
      "type": "function",
      "payable": true
    }
  ],
  "bytecode": "0x608060405260006002553480156200001657600080fd5b506040516200291c3803806200291c833981016040819052620000399162000068565b600080546001600160a01b039092166001600160a01b0319928316179055600180549091163317905562000098565b6000602082840312156200007a578081fd5b81516001600160a01b038116811462000091578182fd5b9392505050565b61287480620000a86000396000f3fe60806040526004361061012a5760003560e01c80639e23d617116100ab578063df1dd8261161006f578063df1dd826146102c7578063e8908346146102da578063ec4788cd14610307578063ee9b6a9614610334578063f6420e1514610349578063f8c89ed21461036b5761012a565b80639e23d6171461024e578063b84cb1851461026e578063bc7939fd14610281578063cbd6d7b1146102a1578063d540ca1b146102b45761012a565b80636f9fb98a116100f25780636f9fb98a146101e957806370ae03891461020b5780637362377b1461022b57806386cac3741461023357806398ea5fca146102465761012a565b806321c0ed881461012f5780633c34106c1461015157806344e59d80146101645780634eda529b146101a757806363baac55146101c7575b600080fd5b34801561013b57600080fd5b5061014f61014a366004612454565b610398565b005b61014f61015f3660046124b8565b61055c565b34801561017057600080fd5b5061018461017f366004612454565b610966565b60405161019e9e9d9c9b9a9998979695949392919061276d565b60405180910390f35b3480156101b357600080fd5b5061014f6101c236600461246c565b6109e6565b3480156101d357600080fd5b506101dc610bb0565b60405161019e91906125f3565b3480156101f557600080fd5b506101fe610c08565b60405161019e9190612764565b34801561021757600080fd5b506101dc610226366004612454565b610c0c565b61014f610c71565b61014f61024136600461246c565b610cc4565b61014f610ed4565b34801561025a57600080fd5b506101fe610269366004612454565b610eed565b61014f61027c36600461246c565b610f0e565b34801561028d57600080fd5b506101dc61029c366004612454565b6113f3565b61014f6102af366004612454565b611456565b61014f6102c236600461248d565b61178e565b61014f6102d5366004612454565b611bb9565b3480156102e657600080fd5b506102fa6102f5366004612454565b611fc8565b60405161019e919061263d565b34801561031357600080fd5b50610327610322366004612454565b612198565b60405161019e91906125a6565b34801561034057600080fd5b506101fe612206565b34801561035557600080fd5b5061035e61220c565b60405161019e919061256e565b34801561037757600080fd5b5061038b610386366004612454565b61221b565b60405161019e919061260d565b60008181526003602052604090206001810154156103b557600080fd5b6000546003820154600f8301546040516341172efd60e01b81526001600160a01b03938416936341172efd936103f393911691339190600401612582565b600060405180830381600087803b15801561040d57600080fd5b505af1158015610421573d6000803e3d6000fd5b5050506000838152600560208181526040808420805460ff19166001908117909155600380880180546001600160a01b0319908116331782556002808b0189815596849052949097208954815589840154938101939093559354928201929092559154908201805485166001600160a01b0392831617905560048087015490830180549095169116179092558381015490820155600680840154908201556007808401549082015560088084015490820155600980840180548594506104ea92840191906122ad565b50600a82810180546104ff92840191906122ad565b50600b828101805461051492840191906122ad565b50600c82810154908201805460ff191660ff9092161515919091179055600d8083015490820155600e8083015490820155600f80830154908201556010918201549101555050565b60008481526003602052604090206002015460641461057a57600080fd5b60008481526003602052604090206001015461059557600080fd5b60008481526003602052604090206001015483106105b257600080fd5b6000848152600360205260409020600401546001600160a01b0316156105d757600080fd5b6000848152600360205260409020600101546105f49084906127f6565b341461061b5760405162461bcd60e51b815260040161061290612618565b60405180910390fd5b600084815260036020818152604080842081516102208101835281548152600182015481850152600282015481840152938101546001600160a01b0390811660608601526004820154166080850152600581015460a0850152600681015460c0850152600781015460e08501526008810154610100850152600981018054835181860281018601909452808452919361012086019392908301828280156106eb57602002820191906000526020600020905b81546001600160a01b031681526001909101906020018083116106cd575b50505050508152602001600a820180548060200260200160405190810160405280929190818152602001828054801561074357602002820191906000526020600020905b81548152602001906001019080831161072f575b50505050508152602001600b820180548060200260200160405190810160405280929190818152602001828054801561079b57602002820191906000526020600020905b815481526020019060010190808311610787575b5050509183525050600c82015460ff161515602080830191909152600d830154604080840191909152600e8401546060840152600f84015460808085019190915260109094015460a09384015233938501939093529083018790526000888152600390915220600101549091506108139085906127f6565b60c0820190815260c8604080840191825260a08401805160e0860190815261010086018881526101c087018890526101a0870188905260008b815260036020818152959091208851815585890151600182015595516002870155606088015190860180546001600160a01b039283166001600160a01b031991821617909155608089015160048801805491909316911617905591516005850155935160068401559251600783015591516008820155610120830151805184936108dd9260098501929101906122fd565b5061014082015180516108fa91600a840191602090910190612352565b50610160820151805161091791600b840191602090910190612352565b50610180820151600c8201805460ff19169115159190911790556101a0820151600d8201556101c0820151600e8201556101e0820151600f820155610200909101516010909101555050505050565b60036020819052600091825260409091208054600182015460028301549383015460048401546005850154600686015460078701546008880154600c890154600d8a0154600e8b0154600f8c01546010909c01549a9c999b999a6001600160a01b03998a169a9990981698969795969495939460ff90931693919290918e565b6109ee61238d565b818152602080820184815260646040808501918252336060860190815260006080870181815260a0880182815260e089018381526101e08a018b90526101808a018490528a84526003808a5295909320895181559651600188015594516002870155915192850180546001600160a01b03199081166001600160a01b0395861617909155915160048601805490931693169290921790559051600583015560c08401516006830155516007820155610100830151600882015561012083015180518493610ac29260098501929101906122fd565b506101408201518051610adf91600a840191602090910190612352565b506101608201518051610afc91600b840191602090910190612352565b50610180820151600c8201805460ff19169115159190911790556101a0820151600d8201556101c0820151600e8201556101e0820151600f820155610200909101516010909101556002805460019190600090610b5a9084906127de565b909155505082610bab5760048054600181019091557f8a35acfbc15ff81a39ae7d344fd709f28e8600b4aa8c65c6b64bfe7fe36bd19b018290556000828152600560205260409020805460ff191690555b505050565b60606004805480602002602001604051908101604052809291908181526020018280548015610bfe57602002820191906000526020600020905b815481526020019060010190808311610bea575b5050505050905090565b4790565b600081815260036020908152604091829020600b01805483518184028101840190945280845260609392830182828015610c6557602002820191906000526020600020905b815481526020019060010190808311610c51575b50505050509050919050565b6001546001600160a01b03163314610c8857600080fd5b6001546040516001600160a01b03909116904780156108fc02916000818181858888f19350505050158015610cc1573d6000803e3d6000fd5b50565b80610cce57600080fd5b60008281526003602052604090206002015460c814610cec57600080fd5b600082815260036020526040902060070154811115610d0a57600080fd5b803414610d1657600080fd5b60008281526003602052604090206007810154610d349083906127f6565b60078201819055610d485761012c60028201555b600981018054600181810183556000838152602080822090930180546001600160a01b03191633179055600b850180549283018155815291822001849055610d91600285612230565b90506000610da1826103e8612279565b600a8501805460018082018355600092835260208084209092018490558983526003918290526040909220875481558288015492810192909255600280880154908301558087015490820180546001600160a01b039283166001600160a01b031991821617909155600480890154908401805491909316911617905560058087015490820155600680870154908201556007808701549082015560088087015490820155600980870180549394508793610e5e92840191906122ad565b50600a8281018054610e7392840191906122ad565b50600b8281018054610e8892840191906122ad565b50600c82810154908201805460ff191660ff9092161515919091179055600d8083015490820155600e8083015490820155600f8083015490820155601091820154910155505050505050565b6001546001600160a01b03163314610eeb57600080fd5b565b60048181548110610efd57600080fd5b600091825260209091200154905081565b6000828152600360205260409020600281015461019014610f2e57600080fd5b600081600e015411610f3f57600080fd5b60048101546001600160a01b03163314610f5857600080fd5b81610f725780600801543414610f6d57600080fd5b610f7e565b813414610f7e57600080fd5b600c81015460ff16610f9a57600c8101805460ff191660011790555b6009810180546000805b8281101561109157838181548110610fcc57634e487b7160e01b600052603260045260246000fd5b600091825260209091200154600a860180546001600160a01b03909216916108fc91908490811061100d57634e487b7160e01b600052603260045260246000fd5b90600052602060002001549081150290604051600060405180830381858888f19350505050158015611043573d6000803e3d6000fd5b5084600a01818154811061106757634e487b7160e01b600052603260045260246000fd5b90600052602060002001548261107d91906127de565b9150806110898161280d565b915050610fa4565b506000856110c6578185600801546110a991906127f6565b9050600185600e01546110bc91906127f6565b600e8601556110e9565b6110d082876127f6565b9050600285600e01546110e391906127f6565b600e8601555b6001546040516001600160a01b039091169082156108fc029083906000818181858888f19350505050158015611123573d6000803e3d6000fd5b50426010860155600e8501546112db57600054600154600480880154600f89015460405163251e2e5f60e01b81526001600160a01b039586169563251e2e5f956111769590821694909116929101612582565b600060405180830381600087803b15801561119057600080fd5b505af11580156111a4573d6000803e3d6000fd5b5050505060098501805460005b81811015611263578281815481106111d957634e487b7160e01b600052603260045260246000fd5b600091825260209091200154600b890180546001600160a01b03909216916108fc91908490811061121a57634e487b7160e01b600052603260045260246000fd5b90600052602060002001549081150290604051600060405180830381858888f19350505050158015611250573d6000803e3d6000fd5b508061125b8161280d565b9150506111b1565b50600060018801819055600288018190556004880180546001600160a01b03191690556005880181905560068801819055600788018190556112a9906009890190612425565b6112b7600a88016000612425565b6112c5600b88016000612425565b5050600c8501805460ff19169055600060108601555b60008781526003602081905260409091208654815560018088015490820155600280880154908201558682015491810180546001600160a01b039384166001600160a01b031991821617909155600480890154908301805491909416911617909155600580870154908201556006808701549082015560078087015490820155600880870154908201556009808701805488939261137c92908401916122ad565b50600a828101805461139192840191906122ad565b50600b82810180546113a692840191906122ad565b50600c82810154908201805460ff191660ff9092161515919091179055600d8083015490820155600e8083015490820155600f808301549082015560109182015491015550505050505050565b600081815260036020908152604091829020600a01805483518184028101840190945280845260609392830182828015610c655760200282019190600052602060002090815481526020019060010190808311610c515750505050509050919050565b60008181526003602052604090206001546001600160a01b0316331461147b57600080fd5b8060010154341461148b57600080fd5b600081600e015482600d01546114a191906127f6565b905060006114b3828460080154612230565b905060006114c984600d01548560080154612230565b905060006114d783836127f6565b905060008186600101546114eb91906127f6565b60048701546040519192506001600160a01b03169082156108fc029083906000818181858888f19350505050158015611528573d6000803e3d6000fd5b5060098601805460005b818110156115e45782818154811061155a57634e487b7160e01b600052603260045260246000fd5b600091825260209091200154600b8a0180546001600160a01b03909216916108fc91908490811061159b57634e487b7160e01b600052603260045260246000fd5b90600052602060002001549081150290604051600060405180830381858888f193505050501580156115d1573d6000803e3d6000fd5b50806115dc8161280d565b915050611532565b506000600189810182905560028a018290555460038a0180546001600160a01b039092166001600160a01b031992831617905560048a01805490911690556005890181905560068901819055600789018190556116459060098a0190612425565b611653600a89016000612425565b611661600b89016000612425565b600c8801805460ff19169055600060108901819055898152600360208190526040909120895481556001808b0154908201556002808b015490820155818a015491810180546001600160a01b039384166001600160a01b0319918216179091556004808c01549083018054919094169116179091556005808a0154908201556006808a0154908201556007808a0154908201556008808a0154908201556009808a0180548b939261171592908401916122ad565b50600a828101805461172a92840191906122ad565b50600b828101805461173f92840191906122ad565b50600c82810154908201805460ff191660ff9092161515919091179055600d8083015490820155600e8083015490820155600f8083015490820155601091820154910155505050505050505050565b6000838152600360205260409020600201546064146117ac57600080fd5b6000838152600360205260409020600101546117c757600080fd5b600083815260036020818152604080842081516102208101835281548152600182015481850152600282015481840152938101546001600160a01b0390811660608601526004820154166080850152600581015460a0850152600681015460c0850152600781015460e085015260088101546101008501526009810180548351818602810186019094528084529193610120860193929083018282801561189757602002820191906000526020600020905b81546001600160a01b03168152600190910190602001808311611879575b50505050508152602001600a82018054806020026020016040519081016040528092919081815260200182805480156118ef57602002820191906000526020600020905b8154815260200190600101908083116118db575b50505050508152602001600b820180548060200260200160405190810160405280929190818152602001828054801561194757602002820191906000526020600020905b815481526020019060010190808311611933575b50505050508152602001600c820160009054906101000a900460ff16151515158152602001600d8201548152602001600e8201548152602001600f8201548152602001601082015481525050905080606001516001600160a01b03166108fc849081150290604051600060405180830381858888f193505050501580156119d2573d6000803e3d6000fd5b506001546040516001600160a01b039091169083156108fc029084906000818181858888f19350505050158015611a0d573d6000803e3d6000fd5b5060005460608201516101e08301516040516341172efd60e01b81526001600160a01b03909316926341172efd92611a4c929091339190600401612582565b600060405180830381600087803b158015611a6657600080fd5b505af1158015611a7a573d6000803e3d6000fd5b505033606084019081526000604080860182815289835260036020818152929093208751815582880151600182015590516002820155925191830180546001600160a01b039384166001600160a01b03199182161790915560808701516004850180549190941691161790915560a0850151600583015560c0850151600683015560e0850151600783015561010085015160088301556101208501518051869550929350611b3192600985019291909101906122fd565b506101408201518051611b4e91600a840191602090910190612352565b506101608201518051611b6b91600b840191602090910190612352565b50610180820151600c8201805460ff19169115159190911790556101a0820151600d8201556101c0820151600e8201556101e0820151600f8201556102009091015160109091015550505050565b6001546001600160a01b03163314611bd057600080fd5b60008181526003602052604090206002015461012c14611bef57600080fd5b600081815260036020818152604080842081516102208101835281548152600182015481850152600282015481840152938101546001600160a01b0390811660608601526004820154166080850152600581015460a0850152600681015460c0850152600781015460e0850152600881015461010085015260098101805483518186028101860190945280845291936101208601939290830182828015611cbf57602002820191906000526020600020905b81546001600160a01b03168152600190910190602001808311611ca1575b50505050508152602001600a8201805480602002602001604051908101604052809291908181526020018280548015611d1757602002820191906000526020600020905b815481526020019060010190808311611d03575b50505050508152602001600b8201805480602002602001604051908101604052809291908181526020018280548015611d6f57602002820191906000526020600020905b815481526020019060010190808311611d5b575b5050509183525050600c82015460ff161515602080830191909152600d8301546040830152600e8301546060830152600f830154608083015260109092015460a09091015260c082015190820151919250611dc9916127f6565b3414611dd457600080fd5b80606001516001600160a01b03166108fc82602001519081150290604051600060405180830381858888f19350505050158015611e15573d6000803e3d6000fd5b5060005460608201516001546101e0840151604051630a233ae560e31b81526001600160a01b0394851694635119d72894611e57949093911691600401612582565b600060405180830381600087803b158015611e7157600080fd5b505af1158015611e85573d6000803e3d6000fd5b505050506080810180516001600160a01b03908116606084019081526101906040808601918252600087815260036020818152929091208751815582880151600182015592516002840155925192820180549385166001600160a01b031994851617905593516004820180549190941692169190911790915560a0830151600582015560c0830151600682015560e08301516007820155610100830151600882015561012083015180518493611f429260098501929101906122fd565b506101408201518051611f5f91600a840191602090910190612352565b506101608201518051611f7c91600b840191602090910190612352565b50610180820151600c8201805460ff19169115159190911790556101a0820151600d8201556101c0820151600e8201556101e0820151600f820155610200909101516010909101555050565b611fd061238d565b60008281526003602081815260409283902083516102208101855281548152600182015481840152600282015481860152928101546001600160a01b0390811660608501526004820154166080840152600581015460a0840152600681015460c0840152600781015460e08401526008810154610100840152600981018054855181850281018501909652808652939491936101208601938301828280156120a157602002820191906000526020600020905b81546001600160a01b03168152600190910190602001808311612083575b50505050508152602001600a82018054806020026020016040519081016040528092919081815260200182805480156120f957602002820191906000526020600020905b8154815260200190600101908083116120e5575b50505050508152602001600b820180548060200260200160405190810160405280929190818152602001828054801561215157602002820191906000526020600020905b81548152602001906001019080831161213d575b5050509183525050600c82015460ff1615156020820152600d8201546040820152600e8201546060820152600f820154608082015260109091015460a09091015292915050565b600081815260036020908152604091829020600901805483518184028101840190945280845260609392830182828015610c6557602002820191906000526020600020905b81546001600160a01b031681526001909101906020018083116121dd5750505050509050919050565b60025481565b6001546001600160a01b031681565b60056020526000908152604090205460ff1681565b60008261223f57506000612273565b8282028284828161226057634e487b7160e01b600052601260045260246000fd5b0414612270576000915050612273565b90505b92915050565b60008161228857506000612273565b8183816122a557634e487b7160e01b600052601260045260246000fd5b049392505050565b8280548282559060005260206000209081019282156122ed5760005260206000209182015b828111156122ed5782548255916001019190600101906122d2565b506122f992915061243f565b5090565b8280548282559060005260206000209081019282156122ed579160200282015b828111156122ed57825182546001600160a01b0319166001600160a01b0390911617825560209092019160019091019061231d565b8280548282559060005260206000209081019282156122ed579160200282015b828111156122ed578251825591602001919060010190612372565b60405180610220016040528060008152602001600081526020016000815260200160006001600160a01b0316815260200160006001600160a01b0316815260200160008152602001600081526020016000815260200160008152602001606081526020016060815260200160608152602001600015158152602001600081526020016000815260200160008152602001600081525090565b5080546000825590600052602060002090810190610cc191905b5b808211156122f95760008155600101612440565b600060208284031215612465578081fd5b5035919050565b6000806040838503121561247e578081fd5b50508035926020909101359150565b6000806000606084860312156124a1578081fd5b505081359360208301359350604090920135919050565b600080600080608085870312156124cd578081fd5b5050823594602084013594506040840135936060013592509050565b6001600160a01b03169052565b6000815180845260208085019450808401835b8381101561252e5781516001600160a01b031687529582019590820190600101612509565b509495945050505050565b6000815180845260208085019450808401835b8381101561252e5781518752958201959082019060010161254c565b15159052565b6001600160a01b0391909116815260200190565b6001600160a01b039384168152919092166020820152604081019190915260600190565b6020808252825182820181905260009190848201906040850190845b818110156125e75783516001600160a01b0316835292840192918401916001016125c2565b50909695505050505050565b6000602082526126066020830184612539565b9392505050565b901515815260200190565b6020808252600b908201526a191bdddb9c185e5b595b9d60aa1b604082015260600190565b600060208252825160208301526020830151604083015260408301516060830152606083015161267060808401826124e9565b50608083015161268360a08401826124e9565b5060a083015160c083015260c083015160e083015260e083015161010081818501528085015191505061012081818501528085015191505061022061014081818601526126d46102408601846124f6565b9250808601519050601f196101608187860301818801526126f58584612539565b9450808801519250506101808187860301818801526127148584612539565b945080880151925050506101a061272d81870183612568565b8601516101c0868101919091528601516101e080870191909152860151610200808701919091529095015193019290925250919050565b90815260200190565b9d8e5260208e019c909c5260408d019a909a526001600160a01b0398891660608d01529690971660808b015260a08a019490945260c089019290925260e088015261010087015215156101208601526101408501919091526101608401526101808301526101a08201526101c00190565b600082198211156127f1576127f1612828565b500190565b60008282101561280857612808612828565b500390565b600060001982141561282157612821612828565b5060010190565b634e487b7160e01b600052601160045260246000fdfea2646970667358221220e7d808d0a43024cfa0e3d909a7b6787842e8b8bc7b6808c9dc5a0c122d48f95464736f6c63430008010033",
  "immutableReferences": {},
  "source": "// SPDX-License-Identifier: MIT\r\npragma solidity ^0.8.1;\r\npragma experimental ABIEncoderV2;\r\n\r\nimport \"./propNFT.sol\";\r\n\r\ncontract morter {\r\n    propNFT nftContract;\r\n    address public tc;\r\n\r\n    constructor(propNFT _nftcontract) {\r\n        nftContract = _nftcontract;\r\n        tc = msg.sender;\r\n    }\r\n\r\n    struct House_property {\r\n        uint256 property_id;\r\n        uint256 price;\r\n        uint256 status;\r\n        address owner;\r\n        address mortgager;\r\n        uint256 mortgageamt;\r\n        uint256 downpayment;\r\n        uint256 capital_to_be_raised;\r\n        uint256 emi_to_be_paid;\r\n        address[] risk_free_investors;\r\n        uint256[] riskFreeInvestorPayment;\r\n        uint256[] riskFreeInvestorInvestment;\r\n        bool firstEmiDone;\r\n        uint256 totalInterestMonths;\r\n        uint256 interestMonthsLeft;\r\n        uint256 nftTokenId;\r\n        uint256 lastEMItimestamp;\r\n    }\r\n\r\n    uint256 public propertycounter = 0;\r\n\r\n    mapping(uint256 => House_property) public allproperties;\r\n\r\n    uint256[] public droppedProperties;\r\n\r\n    mapping(uint256 => bool) public dropStatus;\r\n\r\n    function listProperty(uint256 _price, uint256 tokenId) public {\r\n        // will be called by property lister\r\n        House_property memory prop;\r\n        prop.property_id = tokenId;\r\n        prop.price = _price;\r\n        prop.status = 100;\r\n        prop.owner = msg.sender;\r\n        prop.mortgager = address(0);\r\n        prop.mortgageamt = 0;\r\n        prop.capital_to_be_raised = 0;\r\n        prop.nftTokenId = tokenId;\r\n        prop.firstEmiDone = false;\r\n        allproperties[prop.property_id] = prop;\r\n        propertycounter += 1;\r\n        if (_price == 0) {\r\n            droppedProperties.push(tokenId);\r\n            dropStatus[tokenId] = false;\r\n        }\r\n        //nftContract.approveContract(address(this),tokenId);\r\n    }\r\n\r\n    //status\r\n    //0 not listed\r\n    //100) newly listed\r\n    //200) mortgage initiated\r\n    //300) risk free investors invested\r\n    //400) final trade done\r\n\r\n    function direct_buy_property(\r\n        uint256 property_id,\r\n        uint256 payToSeller,\r\n        uint256 payToTC\r\n    ) public payable {\r\n        //5% commission to TC for direct buying\r\n        //will be called by buyer\r\n        require(allproperties[property_id].status == 100);\r\n        require(allproperties[property_id].price != 0);\r\n        House_property memory prop = allproperties[property_id];\r\n        payable(prop.owner).transfer(payToSeller);\r\n        payable(tc).transfer(payToTC);\r\n        nftContract.transferFromOwnerToMortgager(\r\n            prop.owner,\r\n            msg.sender,\r\n            prop.nftTokenId\r\n        );\r\n        prop.owner = msg.sender;\r\n        prop.status = 0;\r\n        allproperties[property_id] = prop;\r\n    }\r\n\r\n    function initiate_mortgage(\r\n        uint256 property_id,\r\n        uint256 mortgage_amt,\r\n        uint256 _emi,\r\n        uint256 interestMonths\r\n    ) public payable {\r\n        //will be called by person who needs house on loan\r\n        require(allproperties[property_id].status == 100);\r\n        require(allproperties[property_id].price != 0);\r\n        require(allproperties[property_id].price > mortgage_amt);\r\n        require(allproperties[property_id].mortgager == address(0));\r\n        require(\r\n            msg.value == allproperties[property_id].price - mortgage_amt,\r\n            \"downpayment\"\r\n        );\r\n        House_property memory prop = allproperties[property_id];\r\n        prop.mortgager = msg.sender;\r\n        prop.mortgageamt = mortgage_amt;\r\n        prop.downpayment = allproperties[property_id].price - mortgage_amt;\r\n        prop.status = 200;\r\n        prop.capital_to_be_raised = prop.mortgageamt;\r\n        prop.emi_to_be_paid = _emi;\r\n        prop.interestMonthsLeft = interestMonths;\r\n        prop.totalInterestMonths = interestMonths;\r\n        allproperties[property_id] = prop;\r\n    }\r\n\r\n    function riskfreeinvest(uint256 property_id, uint256 rf_amount)\r\n        public\r\n        payable\r\n    {\r\n        //will be called by risk free investors everytime they want to invest\r\n        require(rf_amount != 0);\r\n        require(allproperties[property_id].status == 200);\r\n        require(allproperties[property_id].capital_to_be_raised >= rf_amount);\r\n        require(msg.value == rf_amount);\r\n        House_property storage prop = allproperties[property_id];\r\n        prop.capital_to_be_raised = prop.capital_to_be_raised - rf_amount;\r\n        if (prop.capital_to_be_raised == 0) {\r\n            prop.status = 300;\r\n        }\r\n        address[] storage allriskfreeinvestors = prop.risk_free_investors;\r\n        allriskfreeinvestors.push(msg.sender);\r\n        prop.riskFreeInvestorInvestment.push(rf_amount);\r\n        uint256 returnForRFI = tryMul(2, rf_amount); //0.2% fixed returns\r\n        uint256 payToRiskFreeInvestor = tryDiv(returnForRFI, 1000);\r\n        prop.riskFreeInvestorPayment.push(payToRiskFreeInvestor);\r\n        allproperties[property_id] = prop;\r\n    }\r\n\r\n    function trade(uint256 property_id) public payable {\r\n        //will be called by trading company to finalise trade\r\n        require(msg.sender == tc);\r\n        require(allproperties[property_id].status == 300);\r\n        House_property memory prop = allproperties[property_id];\r\n        require(msg.value == prop.price - prop.downpayment);\r\n        //prop owner gets his/her price and exits\r\n        payable(prop.owner).transfer(prop.price);\r\n        //here prop.owner is original seller and contract has approval for transfer\r\n        nftContract.transferFromMortgagerToTC(prop.owner, tc, prop.nftTokenId);\r\n        prop.owner = prop.mortgager;\r\n        prop.status = 400;\r\n        allproperties[property_id] = prop;\r\n    }\r\n\r\n    function payEmi(uint256 property_id, uint256 penaltyAmount) public payable {\r\n        //will be called by mortgager to pay EMI\r\n        House_property storage prop = allproperties[property_id];\r\n        require(prop.status == 400);\r\n        require(prop.interestMonthsLeft > 0);\r\n        require(msg.sender == prop.mortgager);\r\n        // here penaltyAmount is the total amount after adding 2 emis and penalty\r\n        if (penaltyAmount == 0) require(msg.value == prop.emi_to_be_paid);\r\n        else require(msg.value == penaltyAmount);\r\n\r\n        //first emi flag\r\n        if (prop.firstEmiDone == false) {\r\n            prop.firstEmiDone = true;\r\n        }\r\n\r\n        // transfer returns to risk free investors\r\n        address[] storage allriskfreeinvestors = prop.risk_free_investors;\r\n        uint256 count_of_rf_investors = allriskfreeinvestors.length;\r\n        uint256 totalRiskFreePayment = 0;\r\n        for (uint256 i = 0; i < count_of_rf_investors; i++) {\r\n            payable(allriskfreeinvestors[i]).transfer(\r\n                prop.riskFreeInvestorPayment[i]\r\n            );\r\n            totalRiskFreePayment += prop.riskFreeInvestorPayment[i];\r\n        }\r\n\r\n        //pay rest of amount to trading company\r\n        uint256 payToTC = 0;\r\n        if (penaltyAmount == 0) {\r\n            payToTC = prop.emi_to_be_paid - totalRiskFreePayment;\r\n            prop.interestMonthsLeft = prop.interestMonthsLeft - 1;\r\n        } else {\r\n            payToTC = penaltyAmount - totalRiskFreePayment;\r\n            prop.interestMonthsLeft = prop.interestMonthsLeft - 2;\r\n        }\r\n\r\n        payable(tc).transfer(payToTC);\r\n\r\n        //store last emi timestamp\r\n        prop.lastEMItimestamp = block.timestamp;\r\n\r\n        // If last emi successfully paid then,\r\n        if (prop.interestMonthsLeft == 0) {\r\n            //nft transferred to mortgager\r\n            nftContract.transferFromTCToMortgager(\r\n                tc,\r\n                prop.mortgager,\r\n                prop.nftTokenId\r\n            );\r\n\r\n            // transfer investment to risk free investors\r\n            address[] storage allriskfreeinvestors1 = prop.risk_free_investors;\r\n            uint256 count_of_rf_investors1 = allriskfreeinvestors1.length;\r\n            for (uint256 i = 0; i < count_of_rf_investors1; i++) {\r\n                payable(allriskfreeinvestors1[i]).transfer(\r\n                    prop.riskFreeInvestorInvestment[i]\r\n                );\r\n            }\r\n\r\n            // reset attributes of property so that it can be sold again\r\n            prop.price = 0;\r\n            prop.status = 0;\r\n            prop.mortgager = address(0);\r\n            prop.mortgageamt = 0;\r\n            prop.downpayment = 0;\r\n            prop.capital_to_be_raised = 0;\r\n            delete prop.risk_free_investors;\r\n            delete prop.riskFreeInvestorPayment;\r\n            delete prop.riskFreeInvestorInvestment;\r\n            prop.firstEmiDone = false;\r\n            prop.lastEMItimestamp = 0;\r\n        }\r\n\r\n        allproperties[property_id] = prop;\r\n    }\r\n\r\n    function snatchNFT(uint256 property_id) public payable {\r\n        House_property storage prop = allproperties[property_id];\r\n        require(msg.sender == tc);\r\n        require(msg.value == prop.price);\r\n        uint256 no_of_months_emi_paid = prop.totalInterestMonths -\r\n            prop.interestMonthsLeft;\r\n        uint256 totalEMIPaid = tryMul(\r\n            no_of_months_emi_paid,\r\n            prop.emi_to_be_paid\r\n        );\r\n        uint256 totalEMItoBePaid = tryMul(\r\n            prop.totalInterestMonths,\r\n            prop.emi_to_be_paid\r\n        );\r\n        // If mortgager defaults then, calculate his liabilities\r\n        uint256 actualLiability = totalEMItoBePaid - totalEMIPaid;\r\n        uint256 buyerExitAmount = prop.price - actualLiability;\r\n\r\n        // trading company snatches the property and sends remaining amount to mortgager and mortgager exits\r\n        payable(prop.mortgager).transfer(buyerExitAmount);\r\n\r\n        // transfer investment to risk free investors\r\n        address[] storage allriskfreeinvestors = prop.risk_free_investors;\r\n        uint256 count_of_rf_investors = allriskfreeinvestors.length;\r\n        for (uint256 i = 0; i < count_of_rf_investors; i++) {\r\n            payable(allriskfreeinvestors[i]).transfer(\r\n                prop.riskFreeInvestorInvestment[i]\r\n            );\r\n        }\r\n\r\n        // reset attributes of property so that it can be sold again\r\n        prop.price = 0;\r\n        prop.status = 0;\r\n        prop.owner = tc;\r\n        prop.mortgager = address(0);\r\n        prop.mortgageamt = 0;\r\n        prop.downpayment = 0;\r\n        prop.capital_to_be_raised = 0;\r\n        delete prop.risk_free_investors;\r\n        delete prop.riskFreeInvestorPayment;\r\n        delete prop.riskFreeInvestorInvestment;\r\n        prop.firstEmiDone = false;\r\n        prop.lastEMItimestamp = 0;\r\n\r\n        allproperties[property_id] = prop;\r\n    }\r\n\r\n    function getDropProperty(uint256 property_id) public {\r\n        House_property storage prop = allproperties[property_id];\r\n        require(prop.price == 0);\r\n        nftContract.transferFromOwnerToMortgager(\r\n            prop.owner,\r\n            msg.sender,\r\n            prop.nftTokenId\r\n        );\r\n        dropStatus[property_id] = true;\r\n        prop.owner = msg.sender;\r\n        prop.status = 0;\r\n        allproperties[property_id] = prop;\r\n    }\r\n\r\n    function getAllDroppedProperties() public view returns (uint256[] memory) {\r\n        return droppedProperties;\r\n    }\r\n\r\n    function getContractBalance() public view returns (uint256) {\r\n        return address(this).balance;\r\n    }\r\n\r\n    function getHouseDetails(uint256 property_id)\r\n        public\r\n        view\r\n        returns (House_property memory)\r\n    {\r\n        return allproperties[property_id];\r\n    }\r\n\r\n    function getAddresses(uint256 property_id)\r\n        public\r\n        view\r\n        returns (address[] memory)\r\n    {\r\n        return allproperties[property_id].risk_free_investors;\r\n    }\r\n\r\n    function getRiskFreeInvestorInvestment(uint256 property_id)\r\n        public\r\n        view\r\n        returns (uint256[] memory)\r\n    {\r\n        return allproperties[property_id].riskFreeInvestorInvestment;\r\n    }\r\n\r\n    function getRiskFreeInvestorPayment(uint256 property_id)\r\n        public\r\n        view\r\n        returns (uint256[] memory)\r\n    {\r\n        return allproperties[property_id].riskFreeInvestorPayment;\r\n    }\r\n\r\n    function tryMul(uint256 a, uint256 b) internal pure returns (uint256) {\r\n        unchecked {\r\n            if (a == 0) return (0);\r\n            uint256 c = a * b;\r\n            if (c / a != b) return (0);\r\n            return (c);\r\n        }\r\n    }\r\n\r\n    function tryDiv(uint256 a, uint256 b) internal pure returns (uint256) {\r\n        unchecked {\r\n            if (b == 0) return (0);\r\n            return (a / b);\r\n        }\r\n    }\r\n\r\n    function depositEther() public payable {\r\n        require(msg.sender == tc);\r\n    }\r\n\r\n    function withdrawEther() public payable {\r\n        require(msg.sender == tc);\r\n        payable(tc).transfer(address(this).balance);\r\n    }\r\n}\r\n",
  "sourcePath": "D:\\ETHIndia2\\MetaEstate\\client\\contracts\\morter.sol",
  "compiler": {
    "name": "solc",
    "version": "0.8.1+commit.df193b15.Emscripten.clang"
  },
  "schemaVersion": "3.4.11",
  "updatedAt": "2022-12-24T12:08:52.174Z",
  "networkType": "ethereum",
  "devdoc": {
    "kind": "dev",
    "methods": {},
    "version": 1
  },
  "userdoc": {
    "kind": "user",
    "methods": {},
    "version": 1
  }
}