{
  "contractName": "morter",
  "abi": [
    {
      "inputs": [
        {
          "internalType": "contract propNFT",
          "name": "_nftcontract",
          "type": "address"
        }
      ],
      "stateMutability": "nonpayable",
      "type": "constructor"
    },
    {
      "anonymous": false,
      "inputs": [
        {
          "indexed": true,
          "internalType": "address",
          "name": "owner",
          "type": "address"
        },
        {
          "indexed": true,
          "internalType": "uint256",
          "name": "nftId",
          "type": "uint256"
        },
        {
          "indexed": false,
          "internalType": "string",
          "name": "time",
          "type": "string"
        }
      ],
      "name": "dropCollected",
      "type": "event"
    },
    {
      "inputs": [
        {
          "internalType": "uint256",
          "name": "",
          "type": "uint256"
        }
      ],
      "name": "allproperties",
      "outputs": [
        {
          "internalType": "uint256",
          "name": "property_id",
          "type": "uint256"
        },
        {
          "internalType": "uint256",
          "name": "price",
          "type": "uint256"
        },
        {
          "internalType": "uint256",
          "name": "status",
          "type": "uint256"
        },
        {
          "internalType": "address",
          "name": "owner",
          "type": "address"
        },
        {
          "internalType": "address",
          "name": "mortgager",
          "type": "address"
        },
        {
          "internalType": "uint256",
          "name": "mortgageamt",
          "type": "uint256"
        },
        {
          "internalType": "uint256",
          "name": "downpayment",
          "type": "uint256"
        },
        {
          "internalType": "uint256",
          "name": "capital_to_be_raised",
          "type": "uint256"
        },
        {
          "internalType": "uint256",
          "name": "emi_to_be_paid",
          "type": "uint256"
        },
        {
          "internalType": "bool",
          "name": "firstEmiDone",
          "type": "bool"
        },
        {
          "internalType": "uint256",
          "name": "totalInterestMonths",
          "type": "uint256"
        },
        {
          "internalType": "uint256",
          "name": "interestMonthsLeft",
          "type": "uint256"
        },
        {
          "internalType": "uint256",
          "name": "nftTokenId",
          "type": "uint256"
        },
        {
          "internalType": "uint256",
          "name": "lastEMItimestamp",
          "type": "uint256"
        }
      ],
      "stateMutability": "view",
      "type": "function",
      "constant": true
    },
    {
      "inputs": [
        {
          "internalType": "uint256",
          "name": "",
          "type": "uint256"
        }
      ],
      "name": "dropStatus",
      "outputs": [
        {
          "internalType": "bool",
          "name": "",
          "type": "bool"
        }
      ],
      "stateMutability": "view",
      "type": "function",
      "constant": true
    },
    {
      "inputs": [
        {
          "internalType": "uint256",
          "name": "",
          "type": "uint256"
        }
      ],
      "name": "droppedProperties",
      "outputs": [
        {
          "internalType": "uint256",
          "name": "",
          "type": "uint256"
        }
      ],
      "stateMutability": "view",
      "type": "function",
      "constant": true
    },
    {
      "inputs": [],
      "name": "propertycounter",
      "outputs": [
        {
          "internalType": "uint256",
          "name": "",
          "type": "uint256"
        }
      ],
      "stateMutability": "view",
      "type": "function",
      "constant": true
    },
    {
      "inputs": [],
      "name": "tc",
      "outputs": [
        {
          "internalType": "address",
          "name": "",
          "type": "address"
        }
      ],
      "stateMutability": "view",
      "type": "function",
      "constant": true
    },
    {
      "inputs": [
        {
          "internalType": "uint256",
          "name": "_price",
          "type": "uint256"
        },
        {
          "internalType": "uint256",
          "name": "tokenId",
          "type": "uint256"
        }
      ],
      "name": "listProperty",
      "outputs": [],
      "stateMutability": "nonpayable",
      "type": "function"
    },
    {
      "inputs": [
        {
          "internalType": "uint256",
          "name": "property_id",
          "type": "uint256"
        },
        {
          "internalType": "uint256",
          "name": "payToSeller",
          "type": "uint256"
        },
        {
          "internalType": "uint256",
          "name": "payToTC",
          "type": "uint256"
        }
      ],
      "name": "direct_buy_property",
      "outputs": [],
      "stateMutability": "payable",
      "type": "function",
      "payable": true
    },
    {
      "inputs": [
        {
          "internalType": "uint256",
          "name": "property_id",
          "type": "uint256"
        },
        {
          "internalType": "uint256",
          "name": "mortgage_amt",
          "type": "uint256"
        },
        {
          "internalType": "uint256",
          "name": "_emi",
          "type": "uint256"
        },
        {
          "internalType": "uint256",
          "name": "interestMonths",
          "type": "uint256"
        }
      ],
      "name": "initiate_mortgage",
      "outputs": [],
      "stateMutability": "payable",
      "type": "function",
      "payable": true
    },
    {
      "inputs": [
        {
          "internalType": "uint256",
          "name": "property_id",
          "type": "uint256"
        },
        {
          "internalType": "uint256",
          "name": "rf_amount",
          "type": "uint256"
        }
      ],
      "name": "riskfreeinvest",
      "outputs": [],
      "stateMutability": "payable",
      "type": "function",
      "payable": true
    },
    {
      "inputs": [
        {
          "internalType": "uint256",
          "name": "property_id",
          "type": "uint256"
        }
      ],
      "name": "trade",
      "outputs": [],
      "stateMutability": "payable",
      "type": "function",
      "payable": true
    },
    {
      "inputs": [
        {
          "internalType": "uint256",
          "name": "property_id",
          "type": "uint256"
        },
        {
          "internalType": "uint256",
          "name": "penaltyAmount",
          "type": "uint256"
        }
      ],
      "name": "payEmi",
      "outputs": [],
      "stateMutability": "payable",
      "type": "function",
      "payable": true
    },
    {
      "inputs": [
        {
          "internalType": "uint256",
          "name": "property_id",
          "type": "uint256"
        }
      ],
      "name": "snatchNFT",
      "outputs": [],
      "stateMutability": "payable",
      "type": "function",
      "payable": true
    },
    {
      "inputs": [
        {
          "internalType": "uint256",
          "name": "property_id",
          "type": "uint256"
        },
        {
          "internalType": "string",
          "name": "time",
          "type": "string"
        }
      ],
      "name": "getDropProperty",
      "outputs": [],
      "stateMutability": "nonpayable",
      "type": "function"
    },
    {
      "inputs": [],
      "name": "getAllDroppedProperties",
      "outputs": [
        {
          "internalType": "uint256[]",
          "name": "",
          "type": "uint256[]"
        }
      ],
      "stateMutability": "view",
      "type": "function",
      "constant": true
    },
    {
      "inputs": [],
      "name": "getContractBalance",
      "outputs": [
        {
          "internalType": "uint256",
          "name": "",
          "type": "uint256"
        }
      ],
      "stateMutability": "view",
      "type": "function",
      "constant": true
    },
    {
      "inputs": [
        {
          "internalType": "uint256",
          "name": "property_id",
          "type": "uint256"
        }
      ],
      "name": "getHouseDetails",
      "outputs": [
        {
          "components": [
            {
              "internalType": "uint256",
              "name": "property_id",
              "type": "uint256"
            },
            {
              "internalType": "uint256",
              "name": "price",
              "type": "uint256"
            },
            {
              "internalType": "uint256",
              "name": "status",
              "type": "uint256"
            },
            {
              "internalType": "address",
              "name": "owner",
              "type": "address"
            },
            {
              "internalType": "address",
              "name": "mortgager",
              "type": "address"
            },
            {
              "internalType": "uint256",
              "name": "mortgageamt",
              "type": "uint256"
            },
            {
              "internalType": "uint256",
              "name": "downpayment",
              "type": "uint256"
            },
            {
              "internalType": "uint256",
              "name": "capital_to_be_raised",
              "type": "uint256"
            },
            {
              "internalType": "uint256",
              "name": "emi_to_be_paid",
              "type": "uint256"
            },
            {
              "internalType": "address[]",
              "name": "risk_free_investors",
              "type": "address[]"
            },
            {
              "internalType": "uint256[]",
              "name": "riskFreeInvestorPayment",
              "type": "uint256[]"
            },
            {
              "internalType": "uint256[]",
              "name": "riskFreeInvestorInvestment",
              "type": "uint256[]"
            },
            {
              "internalType": "bool",
              "name": "firstEmiDone",
              "type": "bool"
            },
            {
              "internalType": "uint256",
              "name": "totalInterestMonths",
              "type": "uint256"
            },
            {
              "internalType": "uint256",
              "name": "interestMonthsLeft",
              "type": "uint256"
            },
            {
              "internalType": "uint256",
              "name": "nftTokenId",
              "type": "uint256"
            },
            {
              "internalType": "uint256",
              "name": "lastEMItimestamp",
              "type": "uint256"
            }
          ],
          "internalType": "struct morter.House_property",
          "name": "",
          "type": "tuple"
        }
      ],
      "stateMutability": "view",
      "type": "function",
      "constant": true
    },
    {
      "inputs": [
        {
          "internalType": "uint256",
          "name": "property_id",
          "type": "uint256"
        }
      ],
      "name": "getAddresses",
      "outputs": [
        {
          "internalType": "address[]",
          "name": "",
          "type": "address[]"
        }
      ],
      "stateMutability": "view",
      "type": "function",
      "constant": true
    },
    {
      "inputs": [
        {
          "internalType": "uint256",
          "name": "property_id",
          "type": "uint256"
        }
      ],
      "name": "getRiskFreeInvestorInvestment",
      "outputs": [
        {
          "internalType": "uint256[]",
          "name": "",
          "type": "uint256[]"
        }
      ],
      "stateMutability": "view",
      "type": "function",
      "constant": true
    },
    {
      "inputs": [
        {
          "internalType": "uint256",
          "name": "property_id",
          "type": "uint256"
        }
      ],
      "name": "getRiskFreeInvestorPayment",
      "outputs": [
        {
          "internalType": "uint256[]",
          "name": "",
          "type": "uint256[]"
        }
      ],
      "stateMutability": "view",
      "type": "function",
      "constant": true
    },
    {
      "inputs": [],
      "name": "depositEther",
      "outputs": [],
      "stateMutability": "payable",
      "type": "function",
      "payable": true
    },
    {
      "inputs": [],
      "name": "withdrawEther",
      "outputs": [],
      "stateMutability": "payable",
      "type": "function",
      "payable": true
    }
  ],
  "bytecode": "0x608060405260006002553480156200001657600080fd5b5060405162002a7838038062002a78833981016040819052620000399162000068565b600080546001600160a01b039092166001600160a01b0319928316179055600180549091163317905562000098565b6000602082840312156200007a578081fd5b81516001600160a01b038116811462000091578182fd5b9392505050565b6129d080620000a86000396000f3fe60806040526004361061012a5760003560e01c80639e23d617116100ab578063df1dd8261161006f578063df1dd826146102c7578063e8908346146102da578063ec4788cd14610307578063ee9b6a9614610334578063f6420e1514610349578063f8c89ed21461036b5761012a565b80639e23d6171461024e578063b84cb1851461026e578063bc7939fd14610281578063cbd6d7b1146102a1578063d540ca1b146102b45761012a565b806370ae0389116100f257806370ae0389146101eb5780637362377b1461020b57806386cac374146102135780638af095391461022657806398ea5fca146102465761012a565b80633c34106c1461012f57806344e59d80146101445780634eda529b1461018757806363baac55146101a75780636f9fb98a146101c9575b600080fd5b61014261013d3660046125ab565b610398565b005b34801561015057600080fd5b5061016461015f366004612491565b6107a2565b60405161017e9e9d9c9b9a999897969594939291906128b3565b60405180910390f35b34801561019357600080fd5b506101426101a236600461255f565b610822565b3480156101b357600080fd5b506101bc6109ec565b60405161017e91906126e6565b3480156101d557600080fd5b506101de610a44565b60405161017e91906128aa565b3480156101f757600080fd5b506101bc610206366004612491565b610a48565b610142610aad565b61014261022136600461255f565b610b00565b34801561023257600080fd5b506101426102413660046124a9565b610d10565b610142610f11565b34801561025a57600080fd5b506101de610269366004612491565b610f2a565b61014261027c36600461255f565b610f4b565b34801561028d57600080fd5b506101bc61029c366004612491565b611430565b6101426102af366004612491565b611493565b6101426102c2366004612580565b6117cb565b6101426102d5366004612491565b611bf6565b3480156102e657600080fd5b506102fa6102f5366004612491565b612005565b60405161017e9190612783565b34801561031357600080fd5b50610327610322366004612491565b6121d5565b60405161017e9190612699565b34801561034057600080fd5b506101de612243565b34801561035557600080fd5b5061035e612249565b60405161017e9190612661565b34801561037757600080fd5b5061038b610386366004612491565b612258565b60405161017e9190612700565b6000848152600360205260409020600201546064146103b657600080fd5b6000848152600360205260409020600101546103d157600080fd5b60008481526003602052604090206001015483106103ee57600080fd5b6000848152600360205260409020600401546001600160a01b03161561041357600080fd5b60008481526003602052604090206001015461043090849061293c565b34146104575760405162461bcd60e51b815260040161044e9061275e565b60405180910390fd5b600084815260036020818152604080842081516102208101835281548152600182015481850152600282015481840152938101546001600160a01b0390811660608601526004820154166080850152600581015460a0850152600681015460c0850152600781015460e085015260088101546101008501526009810180548351818602810186019094528084529193610120860193929083018282801561052757602002820191906000526020600020905b81546001600160a01b03168152600190910190602001808311610509575b50505050508152602001600a820180548060200260200160405190810160405280929190818152602001828054801561057f57602002820191906000526020600020905b81548152602001906001019080831161056b575b50505050508152602001600b82018054806020026020016040519081016040528092919081815260200182805480156105d757602002820191906000526020600020905b8154815260200190600101908083116105c3575b5050509183525050600c82015460ff161515602080830191909152600d830154604080840191909152600e8401546060840152600f84015460808085019190915260109094015460a093840152339385019390935290830187905260008881526003909152206001015490915061064f90859061293c565b60c0820190815260c8604080840191825260a08401805160e0860190815261010086018881526101c087018890526101a0870188905260008b815260036020818152959091208851815585890151600182015595516002870155606088015190860180546001600160a01b039283166001600160a01b031991821617909155608089015160048801805491909316911617905591516005850155935160068401559251600783015591516008820155610120830151805184936107199260098501929101906122ea565b50610140820151805161073691600a84019160209091019061234f565b50610160820151805161075391600b84019160209091019061234f565b50610180820151600c8201805460ff19169115159190911790556101a0820151600d8201556101c0820151600e8201556101e0820151600f820155610200909101516010909101555050505050565b60036020819052600091825260409091208054600182015460028301549383015460048401546005850154600686015460078701546008880154600c890154600d8a0154600e8b0154600f8c01546010909c01549a9c999b999a6001600160a01b03998a169a9990981698969795969495939460ff90931693919290918e565b61082a61238a565b818152602080820184815260646040808501918252336060860190815260006080870181815260a0880182815260e089018381526101e08a018b90526101808a018490528a84526003808a5295909320895181559651600188015594516002870155915192850180546001600160a01b03199081166001600160a01b0395861617909155915160048601805490931693169290921790559051600583015560c084015160068301555160078201556101008301516008820155610120830151805184936108fe9260098501929101906122ea565b50610140820151805161091b91600a84019160209091019061234f565b50610160820151805161093891600b84019160209091019061234f565b50610180820151600c8201805460ff19169115159190911790556101a0820151600d8201556101c0820151600e8201556101e0820151600f820155610200909101516010909101556002805460019190600090610996908490612924565b9091555050826109e75760048054600181019091557f8a35acfbc15ff81a39ae7d344fd709f28e8600b4aa8c65c6b64bfe7fe36bd19b018290556000828152600560205260409020805460ff191690555b505050565b60606004805480602002602001604051908101604052809291908181526020018280548015610a3a57602002820191906000526020600020905b815481526020019060010190808311610a26575b5050505050905090565b4790565b600081815260036020908152604091829020600b01805483518184028101840190945280845260609392830182828015610aa157602002820191906000526020600020905b815481526020019060010190808311610a8d575b50505050509050919050565b6001546001600160a01b03163314610ac457600080fd5b6001546040516001600160a01b03909116904780156108fc02916000818181858888f19350505050158015610afd573d6000803e3d6000fd5b50565b80610b0a57600080fd5b60008281526003602052604090206002015460c814610b2857600080fd5b600082815260036020526040902060070154811115610b4657600080fd5b803414610b5257600080fd5b60008281526003602052604090206007810154610b7090839061293c565b60078201819055610b845761012c60028201555b600981018054600181810183556000838152602080822090930180546001600160a01b03191633179055600b850180549283018155815291822001849055610bcd60028561226d565b90506000610bdd826103e86122b6565b600a8501805460018082018355600092835260208084209092018490558983526003918290526040909220875481558288015492810192909255600280880154908301558087015490820180546001600160a01b039283166001600160a01b031991821617909155600480890154908401805491909316911617905560058087015490820155600680870154908201556007808701549082015560088087015490820155600980870180549394508793610c9a9284019190612422565b50600a8281018054610caf9284019190612422565b50600b8281018054610cc49284019190612422565b50600c82810154908201805460ff191660ff9092161515919091179055600d8083015490820155600e8083015490820155600f8083015490820155601091820154910155505050505050565b6000828152600360205260409020600181015415610d2d57600080fd5b6000546003820154600f8301546040516341172efd60e01b81526001600160a01b03938416936341172efd93610d6b93911691339190600401612675565b600060405180830381600087803b158015610d8557600080fd5b505af1158015610d99573d6000803e3d6000fd5b5050506000848152600560208181526040808420805460ff19166001908117909155600380880180546001600160a01b0319908116331782556002808b0189815596849052949097208954815589840154938101939093559354928201929092559154908201805485166001600160a01b039283161790556004808701549083018054909516911617909255838101549082015560068084015490820155600780840154908201556008808401549082015560098084018054859450610e629284019190612422565b50600a8281018054610e779284019190612422565b50600b8281018054610e8c9284019190612422565b50600c82810154908201805460ff191660ff9092161515919091179055600d8083015490820155600e8083015490820155600f8083015490820155601091820154910155604051839033907fd800cb4f1752b7405f460dc7d59a8edadec59ec7966eaabc9c0a5d4f980138c890610f0490869061270b565b60405180910390a3505050565b6001546001600160a01b03163314610f2857600080fd5b565b60048181548110610f3a57600080fd5b600091825260209091200154905081565b6000828152600360205260409020600281015461019014610f6b57600080fd5b600081600e015411610f7c57600080fd5b60048101546001600160a01b03163314610f9557600080fd5b81610faf5780600801543414610faa57600080fd5b610fbb565b813414610fbb57600080fd5b600c81015460ff16610fd757600c8101805460ff191660011790555b6009810180546000805b828110156110ce5783818154811061100957634e487b7160e01b600052603260045260246000fd5b600091825260209091200154600a860180546001600160a01b03909216916108fc91908490811061104a57634e487b7160e01b600052603260045260246000fd5b90600052602060002001549081150290604051600060405180830381858888f19350505050158015611080573d6000803e3d6000fd5b5084600a0181815481106110a457634e487b7160e01b600052603260045260246000fd5b9060005260206000200154826110ba9190612924565b9150806110c681612953565b915050610fe1565b50600085611103578185600801546110e6919061293c565b9050600185600e01546110f9919061293c565b600e860155611126565b61110d828761293c565b9050600285600e0154611120919061293c565b600e8601555b6001546040516001600160a01b039091169082156108fc029083906000818181858888f19350505050158015611160573d6000803e3d6000fd5b50426010860155600e85015461131857600054600154600480880154600f89015460405163251e2e5f60e01b81526001600160a01b039586169563251e2e5f956111b39590821694909116929101612675565b600060405180830381600087803b1580156111cd57600080fd5b505af11580156111e1573d6000803e3d6000fd5b5050505060098501805460005b818110156112a05782818154811061121657634e487b7160e01b600052603260045260246000fd5b600091825260209091200154600b890180546001600160a01b03909216916108fc91908490811061125757634e487b7160e01b600052603260045260246000fd5b90600052602060002001549081150290604051600060405180830381858888f1935050505015801561128d573d6000803e3d6000fd5b508061129881612953565b9150506111ee565b50600060018801819055600288018190556004880180546001600160a01b03191690556005880181905560068801819055600788018190556112e6906009890190612462565b6112f4600a88016000612462565b611302600b88016000612462565b5050600c8501805460ff19169055600060108601555b60008781526003602081905260409091208654815560018088015490820155600280880154908201558682015491810180546001600160a01b039384166001600160a01b03199182161790915560048089015490830180549190941691161790915560058087015490820155600680870154908201556007808701549082015560088087015490820155600980870180548893926113b99290840191612422565b50600a82810180546113ce9284019190612422565b50600b82810180546113e39284019190612422565b50600c82810154908201805460ff191660ff9092161515919091179055600d8083015490820155600e8083015490820155600f808301549082015560109182015491015550505050505050565b600081815260036020908152604091829020600a01805483518184028101840190945280845260609392830182828015610aa15760200282019190600052602060002090815481526020019060010190808311610a8d5750505050509050919050565b60008181526003602052604090206001546001600160a01b031633146114b857600080fd5b806001015434146114c857600080fd5b600081600e015482600d01546114de919061293c565b905060006114f082846008015461226d565b9050600061150684600d0154856008015461226d565b90506000611514838361293c565b90506000818660010154611528919061293c565b60048701546040519192506001600160a01b03169082156108fc029083906000818181858888f19350505050158015611565573d6000803e3d6000fd5b5060098601805460005b818110156116215782818154811061159757634e487b7160e01b600052603260045260246000fd5b600091825260209091200154600b8a0180546001600160a01b03909216916108fc9190849081106115d857634e487b7160e01b600052603260045260246000fd5b90600052602060002001549081150290604051600060405180830381858888f1935050505015801561160e573d6000803e3d6000fd5b508061161981612953565b91505061156f565b506000600189810182905560028a018290555460038a0180546001600160a01b039092166001600160a01b031992831617905560048a01805490911690556005890181905560068901819055600789018190556116829060098a0190612462565b611690600a89016000612462565b61169e600b89016000612462565b600c8801805460ff19169055600060108901819055898152600360208190526040909120895481556001808b0154908201556002808b015490820155818a015491810180546001600160a01b039384166001600160a01b0319918216179091556004808c01549083018054919094169116179091556005808a0154908201556006808a0154908201556007808a0154908201556008808a0154908201556009808a0180548b93926117529290840191612422565b50600a82810180546117679284019190612422565b50600b828101805461177c9284019190612422565b50600c82810154908201805460ff191660ff9092161515919091179055600d8083015490820155600e8083015490820155600f8083015490820155601091820154910155505050505050505050565b6000838152600360205260409020600201546064146117e957600080fd5b60008381526003602052604090206001015461180457600080fd5b600083815260036020818152604080842081516102208101835281548152600182015481850152600282015481840152938101546001600160a01b0390811660608601526004820154166080850152600581015460a0850152600681015460c0850152600781015460e08501526008810154610100850152600981018054835181860281018601909452808452919361012086019392908301828280156118d457602002820191906000526020600020905b81546001600160a01b031681526001909101906020018083116118b6575b50505050508152602001600a820180548060200260200160405190810160405280929190818152602001828054801561192c57602002820191906000526020600020905b815481526020019060010190808311611918575b50505050508152602001600b820180548060200260200160405190810160405280929190818152602001828054801561198457602002820191906000526020600020905b815481526020019060010190808311611970575b50505050508152602001600c820160009054906101000a900460ff16151515158152602001600d8201548152602001600e8201548152602001600f8201548152602001601082015481525050905080606001516001600160a01b03166108fc849081150290604051600060405180830381858888f19350505050158015611a0f573d6000803e3d6000fd5b506001546040516001600160a01b039091169083156108fc029084906000818181858888f19350505050158015611a4a573d6000803e3d6000fd5b5060005460608201516101e08301516040516341172efd60e01b81526001600160a01b03909316926341172efd92611a89929091339190600401612675565b600060405180830381600087803b158015611aa357600080fd5b505af1158015611ab7573d6000803e3d6000fd5b505033606084019081526000604080860182815289835260036020818152929093208751815582880151600182015590516002820155925191830180546001600160a01b039384166001600160a01b03199182161790915560808701516004850180549190941691161790915560a0850151600583015560c0850151600683015560e0850151600783015561010085015160088301556101208501518051869550929350611b6e92600985019291909101906122ea565b506101408201518051611b8b91600a84019160209091019061234f565b506101608201518051611ba891600b84019160209091019061234f565b50610180820151600c8201805460ff19169115159190911790556101a0820151600d8201556101c0820151600e8201556101e0820151600f8201556102009091015160109091015550505050565b6001546001600160a01b03163314611c0d57600080fd5b60008181526003602052604090206002015461012c14611c2c57600080fd5b600081815260036020818152604080842081516102208101835281548152600182015481850152600282015481840152938101546001600160a01b0390811660608601526004820154166080850152600581015460a0850152600681015460c0850152600781015460e0850152600881015461010085015260098101805483518186028101860190945280845291936101208601939290830182828015611cfc57602002820191906000526020600020905b81546001600160a01b03168152600190910190602001808311611cde575b50505050508152602001600a8201805480602002602001604051908101604052809291908181526020018280548015611d5457602002820191906000526020600020905b815481526020019060010190808311611d40575b50505050508152602001600b8201805480602002602001604051908101604052809291908181526020018280548015611dac57602002820191906000526020600020905b815481526020019060010190808311611d98575b5050509183525050600c82015460ff161515602080830191909152600d8301546040830152600e8301546060830152600f830154608083015260109092015460a09091015260c082015190820151919250611e069161293c565b3414611e1157600080fd5b80606001516001600160a01b03166108fc82602001519081150290604051600060405180830381858888f19350505050158015611e52573d6000803e3d6000fd5b5060005460608201516001546101e0840151604051630a233ae560e31b81526001600160a01b0394851694635119d72894611e94949093911691600401612675565b600060405180830381600087803b158015611eae57600080fd5b505af1158015611ec2573d6000803e3d6000fd5b505050506080810180516001600160a01b03908116606084019081526101906040808601918252600087815260036020818152929091208751815582880151600182015592516002840155925192820180549385166001600160a01b031994851617905593516004820180549190941692169190911790915560a0830151600582015560c0830151600682015560e08301516007820155610100830151600882015561012083015180518493611f7f9260098501929101906122ea565b506101408201518051611f9c91600a84019160209091019061234f565b506101608201518051611fb991600b84019160209091019061234f565b50610180820151600c8201805460ff19169115159190911790556101a0820151600d8201556101c0820151600e8201556101e0820151600f820155610200909101516010909101555050565b61200d61238a565b60008281526003602081815260409283902083516102208101855281548152600182015481840152600282015481860152928101546001600160a01b0390811660608501526004820154166080840152600581015460a0840152600681015460c0840152600781015460e08401526008810154610100840152600981018054855181850281018501909652808652939491936101208601938301828280156120de57602002820191906000526020600020905b81546001600160a01b031681526001909101906020018083116120c0575b50505050508152602001600a820180548060200260200160405190810160405280929190818152602001828054801561213657602002820191906000526020600020905b815481526020019060010190808311612122575b50505050508152602001600b820180548060200260200160405190810160405280929190818152602001828054801561218e57602002820191906000526020600020905b81548152602001906001019080831161217a575b5050509183525050600c82015460ff1615156020820152600d8201546040820152600e8201546060820152600f820154608082015260109091015460a09091015292915050565b600081815260036020908152604091829020600901805483518184028101840190945280845260609392830182828015610aa157602002820191906000526020600020905b81546001600160a01b0316815260019091019060200180831161221a5750505050509050919050565b60025481565b6001546001600160a01b031681565b60056020526000908152604090205460ff1681565b60008261227c575060006122b0565b8282028284828161229d57634e487b7160e01b600052601260045260246000fd5b04146122ad5760009150506122b0565b90505b92915050565b6000816122c5575060006122b0565b8183816122e257634e487b7160e01b600052601260045260246000fd5b049392505050565b82805482825590600052602060002090810192821561233f579160200282015b8281111561233f57825182546001600160a01b0319166001600160a01b0390911617825560209092019160019091019061230a565b5061234b92915061247c565b5090565b82805482825590600052602060002090810192821561233f579160200282015b8281111561233f57825182559160200191906001019061236f565b60405180610220016040528060008152602001600081526020016000815260200160006001600160a01b0316815260200160006001600160a01b0316815260200160008152602001600081526020016000815260200160008152602001606081526020016060815260200160608152602001600015158152602001600081526020016000815260200160008152602001600081525090565b82805482825590600052602060002090810192821561233f5760005260206000209182015b8281111561233f578254825591600101919060010190612447565b5080546000825590600052602060002090810190610afd91905b5b8082111561234b576000815560010161247d565b6000602082840312156124a2578081fd5b5035919050565b600080604083850312156124bb578081fd5b82359150602083013567ffffffffffffffff808211156124d9578283fd5b818501915085601f8301126124ec578283fd5b8135818111156124fe576124fe612984565b604051601f8201601f19908116603f0116810190838211818310171561252657612526612984565b8160405282815288602084870101111561253e578586fd5b82602086016020830137856020848301015280955050505050509250929050565b60008060408385031215612571578182fd5b50508035926020909101359150565b600080600060608486031215612594578081fd5b505081359360208301359350604090920135919050565b600080600080608085870312156125c0578081fd5b5050823594602084013594506040840135936060013592509050565b6001600160a01b03169052565b6000815180845260208085019450808401835b838110156126215781516001600160a01b0316875295820195908201906001016125fc565b509495945050505050565b6000815180845260208085019450808401835b838110156126215781518752958201959082019060010161263f565b15159052565b6001600160a01b0391909116815260200190565b6001600160a01b039384168152919092166020820152604081019190915260600190565b6020808252825182820181905260009190848201906040850190845b818110156126da5783516001600160a01b0316835292840192918401916001016126b5565b50909695505050505050565b6000602082526126f9602083018461262c565b9392505050565b901515815260200190565b6000602080835283518082850152825b818110156127375785810183015185820160400152820161271b565b818111156127485783604083870101525b50601f01601f1916929092016040019392505050565b6020808252600b908201526a191bdddb9c185e5b595b9d60aa1b604082015260600190565b60006020825282516020830152602083015160408301526040830151606083015260608301516127b660808401826125dc565b5060808301516127c960a08401826125dc565b5060a083015160c083015260c083015160e083015260e0830151610100818185015280850151915050610120818185015280850151915050610220610140818186015261281a6102408601846125e9565b9250808601519050601f1961016081878603018188015261283b858461262c565b94508088015192505061018081878603018188015261285a858461262c565b945080880151925050506101a06128738187018361265b565b8601516101c0868101919091528601516101e080870191909152860151610200808701919091529095015193019290925250919050565b90815260200190565b9d8e5260208e019c909c5260408d019a909a526001600160a01b0398891660608d01529690971660808b015260a08a019490945260c089019290925260e088015261010087015215156101208601526101408501919091526101608401526101808301526101a08201526101c00190565b600082198211156129375761293761296e565b500190565b60008282101561294e5761294e61296e565b500390565b60006000198214156129675761296761296e565b5060010190565b634e487b7160e01b600052601160045260246000fd5b634e487b7160e01b600052604160045260246000fdfea2646970667358221220037bd87ccf25c9735996668d9b08775db67db51441e4e3f479b20f775f23c94264736f6c63430008010033",
  "immutableReferences": {},
  "source": "// SPDX-License-Identifier: MIT\r\npragma solidity ^0.8.1;\r\npragma experimental ABIEncoderV2;\r\n\r\nimport \"./propNFT.sol\";\r\n\r\ncontract morter {\r\n    propNFT nftContract;\r\n    address public tc;\r\n\r\n    constructor(propNFT _nftcontract) {\r\n        nftContract = _nftcontract;\r\n        tc = msg.sender;\r\n    }\r\n\r\n    struct House_property {\r\n        uint256 property_id;\r\n        uint256 price;\r\n        uint256 status;\r\n        address owner;\r\n        address mortgager;\r\n        uint256 mortgageamt;\r\n        uint256 downpayment;\r\n        uint256 capital_to_be_raised;\r\n        uint256 emi_to_be_paid;\r\n        address[] risk_free_investors;\r\n        uint256[] riskFreeInvestorPayment;\r\n        uint256[] riskFreeInvestorInvestment;\r\n        bool firstEmiDone;\r\n        uint256 totalInterestMonths;\r\n        uint256 interestMonthsLeft;\r\n        uint256 nftTokenId;\r\n        uint256 lastEMItimestamp;\r\n    }\r\n\r\n    uint256 public propertycounter = 0;\r\n\r\n    mapping(uint256 => House_property) public allproperties;\r\n\r\n    uint256[] public droppedProperties;\r\n\r\n    mapping(uint256 => bool) public dropStatus;\r\n\r\n    event dropCollected(address indexed owner, uint indexed nftId,string time);\r\n\r\n    function listProperty(uint256 _price, uint256 tokenId) public {\r\n        // will be called by property lister\r\n        House_property memory prop;\r\n        prop.property_id = tokenId;\r\n        prop.price = _price;\r\n        prop.status = 100;\r\n        prop.owner = msg.sender;\r\n        prop.mortgager = address(0);\r\n        prop.mortgageamt = 0;\r\n        prop.capital_to_be_raised = 0;\r\n        prop.nftTokenId = tokenId;\r\n        prop.firstEmiDone = false;\r\n        allproperties[prop.property_id] = prop;\r\n        propertycounter += 1;\r\n        if (_price == 0) {\r\n            droppedProperties.push(tokenId);\r\n            dropStatus[tokenId] = false;\r\n        }\r\n        //nftContract.approveContract(address(this),tokenId);\r\n    }\r\n\r\n    //status\r\n    //0 not listed\r\n    //100) newly listed\r\n    //200) mortgage initiated\r\n    //300) risk free investors invested\r\n    //400) final trade done\r\n\r\n    function direct_buy_property(\r\n        uint256 property_id,\r\n        uint256 payToSeller,\r\n        uint256 payToTC\r\n    ) public payable {\r\n        //5% commission to TC for direct buying\r\n        //will be called by buyer\r\n        require(allproperties[property_id].status == 100);\r\n        require(allproperties[property_id].price != 0);\r\n        House_property memory prop = allproperties[property_id];\r\n        payable(prop.owner).transfer(payToSeller);\r\n        payable(tc).transfer(payToTC);\r\n        nftContract.transferFromOwnerToMortgager(\r\n            prop.owner,\r\n            msg.sender,\r\n            prop.nftTokenId\r\n        );\r\n        prop.owner = msg.sender;\r\n        prop.status = 0;\r\n        allproperties[property_id] = prop;\r\n    }\r\n\r\n    function initiate_mortgage(\r\n        uint256 property_id,\r\n        uint256 mortgage_amt,\r\n        uint256 _emi,\r\n        uint256 interestMonths\r\n    ) public payable {\r\n        //will be called by person who needs house on loan\r\n        require(allproperties[property_id].status == 100);\r\n        require(allproperties[property_id].price != 0);\r\n        require(allproperties[property_id].price > mortgage_amt);\r\n        require(allproperties[property_id].mortgager == address(0));\r\n        require(\r\n            msg.value == allproperties[property_id].price - mortgage_amt,\r\n            \"downpayment\"\r\n        );\r\n        House_property memory prop = allproperties[property_id];\r\n        prop.mortgager = msg.sender;\r\n        prop.mortgageamt = mortgage_amt;\r\n        prop.downpayment = allproperties[property_id].price - mortgage_amt;\r\n        prop.status = 200;\r\n        prop.capital_to_be_raised = prop.mortgageamt;\r\n        prop.emi_to_be_paid = _emi;\r\n        prop.interestMonthsLeft = interestMonths;\r\n        prop.totalInterestMonths = interestMonths;\r\n        allproperties[property_id] = prop;\r\n    }\r\n\r\n    function riskfreeinvest(uint256 property_id, uint256 rf_amount)\r\n        public\r\n        payable\r\n    {\r\n        //will be called by risk free investors everytime they want to invest\r\n        require(rf_amount != 0);\r\n        require(allproperties[property_id].status == 200);\r\n        require(allproperties[property_id].capital_to_be_raised >= rf_amount);\r\n        require(msg.value == rf_amount);\r\n        House_property storage prop = allproperties[property_id];\r\n        prop.capital_to_be_raised = prop.capital_to_be_raised - rf_amount;\r\n        if (prop.capital_to_be_raised == 0) {\r\n            prop.status = 300;\r\n        }\r\n        address[] storage allriskfreeinvestors = prop.risk_free_investors;\r\n        allriskfreeinvestors.push(msg.sender);\r\n        prop.riskFreeInvestorInvestment.push(rf_amount);\r\n        uint256 returnForRFI = tryMul(2, rf_amount); //0.2% fixed returns\r\n        uint256 payToRiskFreeInvestor = tryDiv(returnForRFI, 1000);\r\n        prop.riskFreeInvestorPayment.push(payToRiskFreeInvestor);\r\n        allproperties[property_id] = prop;\r\n    }\r\n\r\n    function trade(uint256 property_id) public payable {\r\n        //will be called by trading company to finalise trade\r\n        require(msg.sender == tc);\r\n        require(allproperties[property_id].status == 300);\r\n        House_property memory prop = allproperties[property_id];\r\n        require(msg.value == prop.price - prop.downpayment);\r\n        //prop owner gets his/her price and exits\r\n        payable(prop.owner).transfer(prop.price);\r\n        //here prop.owner is original seller and contract has approval for transfer\r\n        nftContract.transferFromMortgagerToTC(prop.owner, tc, prop.nftTokenId);\r\n        prop.owner = prop.mortgager;\r\n        prop.status = 400;\r\n        allproperties[property_id] = prop;\r\n    }\r\n\r\n    function payEmi(uint256 property_id, uint256 penaltyAmount) public payable {\r\n        //will be called by mortgager to pay EMI\r\n        House_property storage prop = allproperties[property_id];\r\n        require(prop.status == 400);\r\n        require(prop.interestMonthsLeft > 0);\r\n        require(msg.sender == prop.mortgager);\r\n        // here penaltyAmount is the total amount after adding 2 emis and penalty\r\n        if (penaltyAmount == 0) require(msg.value == prop.emi_to_be_paid);\r\n        else require(msg.value == penaltyAmount);\r\n\r\n        //first emi flag\r\n        if (prop.firstEmiDone == false) {\r\n            prop.firstEmiDone = true;\r\n        }\r\n\r\n        // transfer returns to risk free investors\r\n        address[] storage allriskfreeinvestors = prop.risk_free_investors;\r\n        uint256 count_of_rf_investors = allriskfreeinvestors.length;\r\n        uint256 totalRiskFreePayment = 0;\r\n        for (uint256 i = 0; i < count_of_rf_investors; i++) {\r\n            payable(allriskfreeinvestors[i]).transfer(\r\n                prop.riskFreeInvestorPayment[i]\r\n            );\r\n            totalRiskFreePayment += prop.riskFreeInvestorPayment[i];\r\n        }\r\n\r\n        //pay rest of amount to trading company\r\n        uint256 payToTC = 0;\r\n        if (penaltyAmount == 0) {\r\n            payToTC = prop.emi_to_be_paid - totalRiskFreePayment;\r\n            prop.interestMonthsLeft = prop.interestMonthsLeft - 1;\r\n        } else {\r\n            payToTC = penaltyAmount - totalRiskFreePayment;\r\n            prop.interestMonthsLeft = prop.interestMonthsLeft - 2;\r\n        }\r\n\r\n        payable(tc).transfer(payToTC);\r\n\r\n        //store last emi timestamp\r\n        prop.lastEMItimestamp = block.timestamp;\r\n\r\n        // If last emi successfully paid then,\r\n        if (prop.interestMonthsLeft == 0) {\r\n            //nft transferred to mortgager\r\n            nftContract.transferFromTCToMortgager(\r\n                tc,\r\n                prop.mortgager,\r\n                prop.nftTokenId\r\n            );\r\n\r\n            // transfer investment to risk free investors\r\n            address[] storage allriskfreeinvestors1 = prop.risk_free_investors;\r\n            uint256 count_of_rf_investors1 = allriskfreeinvestors1.length;\r\n            for (uint256 i = 0; i < count_of_rf_investors1; i++) {\r\n                payable(allriskfreeinvestors1[i]).transfer(\r\n                    prop.riskFreeInvestorInvestment[i]\r\n                );\r\n            }\r\n\r\n            // reset attributes of property so that it can be sold again\r\n            prop.price = 0;\r\n            prop.status = 0;\r\n            prop.mortgager = address(0);\r\n            prop.mortgageamt = 0;\r\n            prop.downpayment = 0;\r\n            prop.capital_to_be_raised = 0;\r\n            delete prop.risk_free_investors;\r\n            delete prop.riskFreeInvestorPayment;\r\n            delete prop.riskFreeInvestorInvestment;\r\n            prop.firstEmiDone = false;\r\n            prop.lastEMItimestamp = 0;\r\n        }\r\n\r\n        allproperties[property_id] = prop;\r\n    }\r\n\r\n    function snatchNFT(uint256 property_id) public payable {\r\n        House_property storage prop = allproperties[property_id];\r\n        require(msg.sender == tc);\r\n        require(msg.value == prop.price);\r\n        uint256 no_of_months_emi_paid = prop.totalInterestMonths -\r\n            prop.interestMonthsLeft;\r\n        uint256 totalEMIPaid = tryMul(\r\n            no_of_months_emi_paid,\r\n            prop.emi_to_be_paid\r\n        );\r\n        uint256 totalEMItoBePaid = tryMul(\r\n            prop.totalInterestMonths,\r\n            prop.emi_to_be_paid\r\n        );\r\n        // If mortgager defaults then, calculate his liabilities\r\n        uint256 actualLiability = totalEMItoBePaid - totalEMIPaid;\r\n        uint256 buyerExitAmount = prop.price - actualLiability;\r\n\r\n        // trading company snatches the property and sends remaining amount to mortgager and mortgager exits\r\n        payable(prop.mortgager).transfer(buyerExitAmount);\r\n\r\n        // transfer investment to risk free investors\r\n        address[] storage allriskfreeinvestors = prop.risk_free_investors;\r\n        uint256 count_of_rf_investors = allriskfreeinvestors.length;\r\n        for (uint256 i = 0; i < count_of_rf_investors; i++) {\r\n            payable(allriskfreeinvestors[i]).transfer(\r\n                prop.riskFreeInvestorInvestment[i]\r\n            );\r\n        }\r\n\r\n        // reset attributes of property so that it can be sold again\r\n        prop.price = 0;\r\n        prop.status = 0;\r\n        prop.owner = tc;\r\n        prop.mortgager = address(0);\r\n        prop.mortgageamt = 0;\r\n        prop.downpayment = 0;\r\n        prop.capital_to_be_raised = 0;\r\n        delete prop.risk_free_investors;\r\n        delete prop.riskFreeInvestorPayment;\r\n        delete prop.riskFreeInvestorInvestment;\r\n        prop.firstEmiDone = false;\r\n        prop.lastEMItimestamp = 0;\r\n\r\n        allproperties[property_id] = prop;\r\n    }\r\n\r\n    function getDropProperty(uint256 property_id,string memory time) public {\r\n        House_property storage prop = allproperties[property_id];\r\n        require(prop.price == 0);\r\n        nftContract.transferFromOwnerToMortgager(\r\n            prop.owner,\r\n            msg.sender,\r\n            prop.nftTokenId\r\n        );\r\n        dropStatus[property_id] = true;\r\n        prop.owner = msg.sender;\r\n        prop.status = 0;\r\n        allproperties[property_id] = prop;\r\n        emit dropCollected(msg.sender,property_id,time);\r\n    }\r\n\r\n    function getAllDroppedProperties() public view returns (uint256[] memory) {\r\n        return droppedProperties;\r\n    }\r\n\r\n    function getContractBalance() public view returns (uint256) {\r\n        return address(this).balance;\r\n    }\r\n\r\n    function getHouseDetails(uint256 property_id)\r\n        public\r\n        view\r\n        returns (House_property memory)\r\n    {\r\n        return allproperties[property_id];\r\n    }\r\n\r\n    function getAddresses(uint256 property_id)\r\n        public\r\n        view\r\n        returns (address[] memory)\r\n    {\r\n        return allproperties[property_id].risk_free_investors;\r\n    }\r\n\r\n    function getRiskFreeInvestorInvestment(uint256 property_id)\r\n        public\r\n        view\r\n        returns (uint256[] memory)\r\n    {\r\n        return allproperties[property_id].riskFreeInvestorInvestment;\r\n    }\r\n\r\n    function getRiskFreeInvestorPayment(uint256 property_id)\r\n        public\r\n        view\r\n        returns (uint256[] memory)\r\n    {\r\n        return allproperties[property_id].riskFreeInvestorPayment;\r\n    }\r\n\r\n    function tryMul(uint256 a, uint256 b) internal pure returns (uint256) {\r\n        unchecked {\r\n            if (a == 0) return (0);\r\n            uint256 c = a * b;\r\n            if (c / a != b) return (0);\r\n            return (c);\r\n        }\r\n    }\r\n\r\n    function tryDiv(uint256 a, uint256 b) internal pure returns (uint256) {\r\n        unchecked {\r\n            if (b == 0) return (0);\r\n            return (a / b);\r\n        }\r\n    }\r\n\r\n    function depositEther() public payable {\r\n        require(msg.sender == tc);\r\n    }\r\n\r\n    function withdrawEther() public payable {\r\n        require(msg.sender == tc);\r\n        payable(tc).transfer(address(this).balance);\r\n    }\r\n}\r\n",
  "sourcePath": "D:\\MetaEstate\\client\\contracts\\morter.sol",
  "compiler": {
    "name": "solc",
    "version": "0.8.1+commit.df193b15.Emscripten.clang"
  },
  "schemaVersion": "3.4.11",
  "updatedAt": "2022-12-31T14:05:42.757Z",
  "networkType": "ethereum",
  "devdoc": {
    "kind": "dev",
    "methods": {},
    "version": 1
  },
  "userdoc": {
    "kind": "user",
    "methods": {},
    "version": 1
  }
}