{
  "contractName": "morter",
  "abi": [
    {
      "inputs": [
        {
          "internalType": "contract propNFT",
          "name": "_nftcontract",
          "type": "address"
        }
      ],
      "stateMutability": "nonpayable",
      "type": "constructor"
    },
    {
      "inputs": [
        {
          "internalType": "uint256",
          "name": "",
          "type": "uint256"
        }
      ],
      "name": "allproperties",
      "outputs": [
        {
          "internalType": "uint256",
          "name": "property_id",
          "type": "uint256"
        },
        {
          "internalType": "uint256",
          "name": "price",
          "type": "uint256"
        },
        {
          "internalType": "uint256",
          "name": "status",
          "type": "uint256"
        },
        {
          "internalType": "address",
          "name": "owner",
          "type": "address"
        },
        {
          "internalType": "address",
          "name": "mortgager",
          "type": "address"
        },
        {
          "internalType": "uint256",
          "name": "mortgageamt",
          "type": "uint256"
        },
        {
          "internalType": "uint256",
          "name": "downpayment",
          "type": "uint256"
        },
        {
          "internalType": "uint256",
          "name": "capital_to_be_raised",
          "type": "uint256"
        },
        {
          "internalType": "uint256",
          "name": "emi_to_be_paid",
          "type": "uint256"
        },
        {
          "internalType": "bool",
          "name": "firstEmiDone",
          "type": "bool"
        },
        {
          "internalType": "uint256",
          "name": "totalInterestMonths",
          "type": "uint256"
        },
        {
          "internalType": "uint256",
          "name": "interestMonthsLeft",
          "type": "uint256"
        },
        {
          "internalType": "uint256",
          "name": "nftTokenId",
          "type": "uint256"
        },
        {
          "internalType": "uint256",
          "name": "lastEMItimestamp",
          "type": "uint256"
        }
      ],
      "stateMutability": "view",
      "type": "function",
      "constant": true
    },
    {
      "inputs": [],
      "name": "propertycounter",
      "outputs": [
        {
          "internalType": "uint256",
          "name": "",
          "type": "uint256"
        }
      ],
      "stateMutability": "view",
      "type": "function",
      "constant": true
    },
    {
      "inputs": [],
      "name": "tc",
      "outputs": [
        {
          "internalType": "address",
          "name": "",
          "type": "address"
        }
      ],
      "stateMutability": "view",
      "type": "function",
      "constant": true
    },
    {
      "inputs": [
        {
          "internalType": "uint256",
          "name": "_price",
          "type": "uint256"
        },
        {
          "internalType": "uint256",
          "name": "tokenId",
          "type": "uint256"
        }
      ],
      "name": "listProperty",
      "outputs": [],
      "stateMutability": "nonpayable",
      "type": "function"
    },
    {
      "inputs": [
        {
          "internalType": "uint256",
          "name": "property_id",
          "type": "uint256"
        },
        {
          "internalType": "uint256",
          "name": "payToSeller",
          "type": "uint256"
        },
        {
          "internalType": "uint256",
          "name": "payToTC",
          "type": "uint256"
        }
      ],
      "name": "direct_buy_property",
      "outputs": [],
      "stateMutability": "payable",
      "type": "function",
      "payable": true
    },
    {
      "inputs": [
        {
          "internalType": "uint256",
          "name": "property_id",
          "type": "uint256"
        },
        {
          "internalType": "uint256",
          "name": "mortgage_amt",
          "type": "uint256"
        },
        {
          "internalType": "uint256",
          "name": "_emi",
          "type": "uint256"
        },
        {
          "internalType": "uint256",
          "name": "interestMonths",
          "type": "uint256"
        }
      ],
      "name": "initiate_mortgage",
      "outputs": [],
      "stateMutability": "payable",
      "type": "function",
      "payable": true
    },
    {
      "inputs": [
        {
          "internalType": "uint256",
          "name": "property_id",
          "type": "uint256"
        },
        {
          "internalType": "uint256",
          "name": "rf_amount",
          "type": "uint256"
        }
      ],
      "name": "riskfreeinvest",
      "outputs": [],
      "stateMutability": "payable",
      "type": "function",
      "payable": true
    },
    {
      "inputs": [
        {
          "internalType": "uint256",
          "name": "property_id",
          "type": "uint256"
        }
      ],
      "name": "trade",
      "outputs": [],
      "stateMutability": "payable",
      "type": "function",
      "payable": true
    },
    {
      "inputs": [
        {
          "internalType": "uint256",
          "name": "property_id",
          "type": "uint256"
        },
        {
          "internalType": "uint256",
          "name": "penaltyAmount",
          "type": "uint256"
        }
      ],
      "name": "payEmi",
      "outputs": [],
      "stateMutability": "payable",
      "type": "function",
      "payable": true
    },
    {
      "inputs": [
        {
          "internalType": "uint256",
          "name": "property_id",
          "type": "uint256"
        }
      ],
      "name": "snatchNFT",
      "outputs": [],
      "stateMutability": "payable",
      "type": "function",
      "payable": true
    },
    {
      "inputs": [],
      "name": "getContractBalance",
      "outputs": [
        {
          "internalType": "uint256",
          "name": "",
          "type": "uint256"
        }
      ],
      "stateMutability": "view",
      "type": "function",
      "constant": true
    },
    {
      "inputs": [
        {
          "internalType": "uint256",
          "name": "property_id",
          "type": "uint256"
        }
      ],
      "name": "getHouseDetails",
      "outputs": [
        {
          "components": [
            {
              "internalType": "uint256",
              "name": "property_id",
              "type": "uint256"
            },
            {
              "internalType": "uint256",
              "name": "price",
              "type": "uint256"
            },
            {
              "internalType": "uint256",
              "name": "status",
              "type": "uint256"
            },
            {
              "internalType": "address",
              "name": "owner",
              "type": "address"
            },
            {
              "internalType": "address",
              "name": "mortgager",
              "type": "address"
            },
            {
              "internalType": "uint256",
              "name": "mortgageamt",
              "type": "uint256"
            },
            {
              "internalType": "uint256",
              "name": "downpayment",
              "type": "uint256"
            },
            {
              "internalType": "uint256",
              "name": "capital_to_be_raised",
              "type": "uint256"
            },
            {
              "internalType": "uint256",
              "name": "emi_to_be_paid",
              "type": "uint256"
            },
            {
              "internalType": "address[]",
              "name": "risk_free_investors",
              "type": "address[]"
            },
            {
              "internalType": "uint256[]",
              "name": "riskFreeInvestorPayment",
              "type": "uint256[]"
            },
            {
              "internalType": "uint256[]",
              "name": "riskFreeInvestorInvestment",
              "type": "uint256[]"
            },
            {
              "internalType": "bool",
              "name": "firstEmiDone",
              "type": "bool"
            },
            {
              "internalType": "uint256",
              "name": "totalInterestMonths",
              "type": "uint256"
            },
            {
              "internalType": "uint256",
              "name": "interestMonthsLeft",
              "type": "uint256"
            },
            {
              "internalType": "uint256",
              "name": "nftTokenId",
              "type": "uint256"
            },
            {
              "internalType": "uint256",
              "name": "lastEMItimestamp",
              "type": "uint256"
            }
          ],
          "internalType": "struct morter.House_property",
          "name": "",
          "type": "tuple"
        }
      ],
      "stateMutability": "view",
      "type": "function",
      "constant": true
    },
    {
      "inputs": [
        {
          "internalType": "uint256",
          "name": "property_id",
          "type": "uint256"
        }
      ],
      "name": "getAddresses",
      "outputs": [
        {
          "internalType": "address[]",
          "name": "",
          "type": "address[]"
        }
      ],
      "stateMutability": "view",
      "type": "function",
      "constant": true
    },
    {
      "inputs": [
        {
          "internalType": "uint256",
          "name": "property_id",
          "type": "uint256"
        }
      ],
      "name": "getRiskFreeInvestorInvestment",
      "outputs": [
        {
          "internalType": "uint256[]",
          "name": "",
          "type": "uint256[]"
        }
      ],
      "stateMutability": "view",
      "type": "function",
      "constant": true
    },
    {
      "inputs": [
        {
          "internalType": "uint256",
          "name": "property_id",
          "type": "uint256"
        }
      ],
      "name": "getRiskFreeInvestorPayment",
      "outputs": [
        {
          "internalType": "uint256[]",
          "name": "",
          "type": "uint256[]"
        }
      ],
      "stateMutability": "view",
      "type": "function",
      "constant": true
    },
    {
      "inputs": [],
      "name": "depositEther",
      "outputs": [],
      "stateMutability": "payable",
      "type": "function",
      "payable": true
    },
    {
      "inputs": [],
      "name": "withdrawEther",
      "outputs": [],
      "stateMutability": "payable",
      "type": "function",
      "payable": true
    }
  ],
  "bytecode": "0x608060405260006002553480156200001657600080fd5b50604051620025c5380380620025c5833981016040819052620000399162000068565b600080546001600160a01b039092166001600160a01b0319928316179055600180549091163317905562000098565b6000602082840312156200007a578081fd5b81516001600160a01b038116811462000091578182fd5b9392505050565b61251d80620000a86000396000f3fe6080604052600436106100fe5760003560e01c8063b84cb18511610095578063df1dd82611610064578063df1dd82614610246578063e890834614610259578063ec4788cd14610286578063ee9b6a96146102b3578063f6420e15146102c8576100fe565b8063b84cb185146101ed578063bc7939fd14610200578063cbd6d7b114610220578063d540ca1b14610233576100fe565b806370ae0389116100d157806370ae03891461019d5780637362377b146101ca57806386cac374146101d257806398ea5fca146101e5576100fe565b80633c34106c1461010357806344e59d80146101185780634eda529b1461015b5780636f9fb98a1461017b575b600080fd5b61011661011136600461216c565b6102ea565b005b34801561012457600080fd5b50610138610133366004612108565b6106f4565b6040516101529e9d9c9b9a99989796959493929190612416565b60405180910390f35b34801561016757600080fd5b50610116610176366004612120565b610774565b34801561018757600080fd5b506101906108f2565b604051610152919061240d565b3480156101a957600080fd5b506101bd6101b8366004612108565b6108f6565b60405161015291906122a7565b61011661095b565b6101166101e0366004612120565b6109ae565b610116610bbe565b6101166101fb366004612120565b610bd7565b34801561020c57600080fd5b506101bd61021b366004612108565b6110bc565b61011661022e366004612108565b61111f565b610116610241366004612141565b611457565b610116610254366004612108565b611882565b34801561026557600080fd5b50610279610274366004612108565b611c91565b60405161015291906122e6565b34801561029257600080fd5b506102a66102a1366004612108565b611e61565b604051610152919061225a565b3480156102bf57600080fd5b50610190611ecf565b3480156102d457600080fd5b506102dd611ed5565b6040516101529190612222565b60008481526003602052604090206002015460641461030857600080fd5b60008481526003602052604090206001015461032357600080fd5b600084815260036020526040902060010154831061034057600080fd5b6000848152600360205260409020600401546001600160a01b03161561036557600080fd5b60008481526003602052604090206001015461038290849061249f565b34146103a95760405162461bcd60e51b81526004016103a0906122c1565b60405180910390fd5b600084815260036020818152604080842081516102208101835281548152600182015481850152600282015481840152938101546001600160a01b0390811660608601526004820154166080850152600581015460a0850152600681015460c0850152600781015460e085015260088101546101008501526009810180548351818602810186019094528084529193610120860193929083018282801561047957602002820191906000526020600020905b81546001600160a01b0316815260019091019060200180831161045b575b50505050508152602001600a82018054806020026020016040519081016040528092919081815260200182805480156104d157602002820191906000526020600020905b8154815260200190600101908083116104bd575b50505050508152602001600b820180548060200260200160405190810160405280929190818152602001828054801561052957602002820191906000526020600020905b815481526020019060010190808311610515575b5050509183525050600c82015460ff161515602080830191909152600d830154604080840191909152600e8401546060840152600f84015460808085019190915260109094015460a09384015233938501939093529083018790526000888152600390915220600101549091506105a190859061249f565b60c0820190815260c8604080840191825260a08401805160e0860190815261010086018881526101c087018890526101a0870188905260008b815260036020818152959091208851815585890151600182015595516002870155606088015190860180546001600160a01b039283166001600160a01b0319918216179091556080890151600488018054919093169116179055915160058501559351600684015592516007830155915160088201556101208301518051849361066b926009850192910190611f61565b50610140820151805161068891600a840191602090910190611fc6565b5061016082015180516106a591600b840191602090910190611fc6565b50610180820151600c8201805460ff19169115159190911790556101a0820151600d8201556101c0820151600e8201556101e0820151600f820155610200909101516010909101555050505050565b60036020819052600091825260409091208054600182015460028301549383015460048401546005850154600686015460078701546008880154600c890154600d8a0154600e8b0154600f8c01546010909c01549a9c999b999a6001600160a01b03998a169a9990981698969795969495939460ff90931693919290918e565b61077c612001565b818152602080820184815260646040808501918252336060860190815260006080870181815260a0880182815260e089018381526101e08a018b90526101808a018490528a84526003808a5295909320895181559651600188015594516002870155915192850180546001600160a01b03199081166001600160a01b0395861617909155915160048601805490931693169290921790559051600583015560c08401516006830155516007820155610100830151600882015561012083015180518493610850926009850192910190611f61565b50610140820151805161086d91600a840191602090910190611fc6565b50610160820151805161088a91600b840191602090910190611fc6565b50610180820151600c8201805460ff19169115159190911790556101a0820151600d8201556101c0820151600e8201556101e0820151600f8201556102009091015160109091015560028054600191906000906108e8908490612487565b9091555050505050565b4790565b600081815260036020908152604091829020600b0180548351818402810184019094528084526060939283018282801561094f57602002820191906000526020600020905b81548152602001906001019080831161093b575b50505050509050919050565b6001546001600160a01b0316331461097257600080fd5b6001546040516001600160a01b03909116904780156108fc02916000818181858888f193505050501580156109ab573d6000803e3d6000fd5b50565b806109b857600080fd5b60008281526003602052604090206002015460c8146109d657600080fd5b6000828152600360205260409020600701548111156109f457600080fd5b803414610a0057600080fd5b60008281526003602052604090206007810154610a1e90839061249f565b60078201819055610a325761012c60028201555b600981018054600181810183556000838152602080822090930180546001600160a01b03191633179055600b850180549283018155815291822001849055610a7b600285611ee4565b90506000610a8b826103e8611f2d565b600a8501805460018082018355600092835260208084209092018490558983526003918290526040909220875481558288015492810192909255600280880154908301558087015490820180546001600160a01b039283166001600160a01b031991821617909155600480890154908401805491909316911617905560058087015490820155600680870154908201556007808701549082015560088087015490820155600980870180549394508793610b489284019190612099565b50600a8281018054610b5d9284019190612099565b50600b8281018054610b729284019190612099565b50600c82810154908201805460ff191660ff9092161515919091179055600d8083015490820155600e8083015490820155600f8083015490820155601091820154910155505050505050565b6001546001600160a01b03163314610bd557600080fd5b565b6000828152600360205260409020600281015461019014610bf757600080fd5b600081600e015411610c0857600080fd5b60048101546001600160a01b03163314610c2157600080fd5b81610c3b5780600801543414610c3657600080fd5b610c47565b813414610c4757600080fd5b600c81015460ff16610c6357600c8101805460ff191660011790555b6009810180546000805b82811015610d5a57838181548110610c9557634e487b7160e01b600052603260045260246000fd5b600091825260209091200154600a860180546001600160a01b03909216916108fc919084908110610cd657634e487b7160e01b600052603260045260246000fd5b90600052602060002001549081150290604051600060405180830381858888f19350505050158015610d0c573d6000803e3d6000fd5b5084600a018181548110610d3057634e487b7160e01b600052603260045260246000fd5b906000526020600020015482610d469190612487565b915080610d52816124b6565b915050610c6d565b50600085610d8f57818560080154610d72919061249f565b9050600185600e0154610d85919061249f565b600e860155610db2565b610d99828761249f565b9050600285600e0154610dac919061249f565b600e8601555b6001546040516001600160a01b039091169082156108fc029083906000818181858888f19350505050158015610dec573d6000803e3d6000fd5b50426010860155600e850154610fa457600054600154600480880154600f89015460405163251e2e5f60e01b81526001600160a01b039586169563251e2e5f95610e3f9590821694909116929101612236565b600060405180830381600087803b158015610e5957600080fd5b505af1158015610e6d573d6000803e3d6000fd5b5050505060098501805460005b81811015610f2c57828181548110610ea257634e487b7160e01b600052603260045260246000fd5b600091825260209091200154600b890180546001600160a01b03909216916108fc919084908110610ee357634e487b7160e01b600052603260045260246000fd5b90600052602060002001549081150290604051600060405180830381858888f19350505050158015610f19573d6000803e3d6000fd5b5080610f24816124b6565b915050610e7a565b50600060018801819055600288018190556004880180546001600160a01b0319169055600588018190556006880181905560078801819055610f729060098901906120d9565b610f80600a880160006120d9565b610f8e600b880160006120d9565b5050600c8501805460ff19169055600060108601555b60008781526003602081905260409091208654815560018088015490820155600280880154908201558682015491810180546001600160a01b039384166001600160a01b03199182161790915560048089015490830180549190941691161790915560058087015490820155600680870154908201556007808701549082015560088087015490820155600980870180548893926110459290840191612099565b50600a828101805461105a9284019190612099565b50600b828101805461106f9284019190612099565b50600c82810154908201805460ff191660ff9092161515919091179055600d8083015490820155600e8083015490820155600f808301549082015560109182015491015550505050505050565b600081815260036020908152604091829020600a0180548351818402810184019094528084526060939283018282801561094f576020028201919060005260206000209081548152602001906001019080831161093b5750505050509050919050565b60008181526003602052604090206001546001600160a01b0316331461114457600080fd5b8060010154341461115457600080fd5b600081600e015482600d015461116a919061249f565b9050600061117c828460080154611ee4565b9050600061119284600d01548560080154611ee4565b905060006111a0838361249f565b905060008186600101546111b4919061249f565b60048701546040519192506001600160a01b03169082156108fc029083906000818181858888f193505050501580156111f1573d6000803e3d6000fd5b5060098601805460005b818110156112ad5782818154811061122357634e487b7160e01b600052603260045260246000fd5b600091825260209091200154600b8a0180546001600160a01b03909216916108fc91908490811061126457634e487b7160e01b600052603260045260246000fd5b90600052602060002001549081150290604051600060405180830381858888f1935050505015801561129a573d6000803e3d6000fd5b50806112a5816124b6565b9150506111fb565b506000600189810182905560028a018290555460038a0180546001600160a01b039092166001600160a01b031992831617905560048a018054909116905560058901819055600689018190556007890181905561130e9060098a01906120d9565b61131c600a890160006120d9565b61132a600b890160006120d9565b600c8801805460ff19169055600060108901819055898152600360208190526040909120895481556001808b0154908201556002808b015490820155818a015491810180546001600160a01b039384166001600160a01b0319918216179091556004808c01549083018054919094169116179091556005808a0154908201556006808a0154908201556007808a0154908201556008808a0154908201556009808a0180548b93926113de9290840191612099565b50600a82810180546113f39284019190612099565b50600b82810180546114089284019190612099565b50600c82810154908201805460ff191660ff9092161515919091179055600d8083015490820155600e8083015490820155600f8083015490820155601091820154910155505050505050505050565b60008381526003602052604090206002015460641461147557600080fd5b60008381526003602052604090206001015461149057600080fd5b600083815260036020818152604080842081516102208101835281548152600182015481850152600282015481840152938101546001600160a01b0390811660608601526004820154166080850152600581015460a0850152600681015460c0850152600781015460e085015260088101546101008501526009810180548351818602810186019094528084529193610120860193929083018282801561156057602002820191906000526020600020905b81546001600160a01b03168152600190910190602001808311611542575b50505050508152602001600a82018054806020026020016040519081016040528092919081815260200182805480156115b857602002820191906000526020600020905b8154815260200190600101908083116115a4575b50505050508152602001600b820180548060200260200160405190810160405280929190818152602001828054801561161057602002820191906000526020600020905b8154815260200190600101908083116115fc575b50505050508152602001600c820160009054906101000a900460ff16151515158152602001600d8201548152602001600e8201548152602001600f8201548152602001601082015481525050905080606001516001600160a01b03166108fc849081150290604051600060405180830381858888f1935050505015801561169b573d6000803e3d6000fd5b506001546040516001600160a01b039091169083156108fc029084906000818181858888f193505050501580156116d6573d6000803e3d6000fd5b5060005460608201516101e08301516040516341172efd60e01b81526001600160a01b03909316926341172efd92611715929091339190600401612236565b600060405180830381600087803b15801561172f57600080fd5b505af1158015611743573d6000803e3d6000fd5b505033606084019081526000604080860182815289835260036020818152929093208751815582880151600182015590516002820155925191830180546001600160a01b039384166001600160a01b03199182161790915560808701516004850180549190941691161790915560a0850151600583015560c0850151600683015560e08501516007830155610100850151600883015561012085015180518695509293506117fa9260098501929190910190611f61565b50610140820151805161181791600a840191602090910190611fc6565b50610160820151805161183491600b840191602090910190611fc6565b50610180820151600c8201805460ff19169115159190911790556101a0820151600d8201556101c0820151600e8201556101e0820151600f8201556102009091015160109091015550505050565b6001546001600160a01b0316331461189957600080fd5b60008181526003602052604090206002015461012c146118b857600080fd5b600081815260036020818152604080842081516102208101835281548152600182015481850152600282015481840152938101546001600160a01b0390811660608601526004820154166080850152600581015460a0850152600681015460c0850152600781015460e085015260088101546101008501526009810180548351818602810186019094528084529193610120860193929083018282801561198857602002820191906000526020600020905b81546001600160a01b0316815260019091019060200180831161196a575b50505050508152602001600a82018054806020026020016040519081016040528092919081815260200182805480156119e057602002820191906000526020600020905b8154815260200190600101908083116119cc575b50505050508152602001600b8201805480602002602001604051908101604052809291908181526020018280548015611a3857602002820191906000526020600020905b815481526020019060010190808311611a24575b5050509183525050600c82015460ff161515602080830191909152600d8301546040830152600e8301546060830152600f830154608083015260109092015460a09091015260c082015190820151919250611a929161249f565b3414611a9d57600080fd5b80606001516001600160a01b03166108fc82602001519081150290604051600060405180830381858888f19350505050158015611ade573d6000803e3d6000fd5b5060005460608201516001546101e0840151604051630a233ae560e31b81526001600160a01b0394851694635119d72894611b20949093911691600401612236565b600060405180830381600087803b158015611b3a57600080fd5b505af1158015611b4e573d6000803e3d6000fd5b505050506080810180516001600160a01b03908116606084019081526101906040808601918252600087815260036020818152929091208751815582880151600182015592516002840155925192820180549385166001600160a01b031994851617905593516004820180549190941692169190911790915560a0830151600582015560c0830151600682015560e08301516007820155610100830151600882015561012083015180518493611c0b926009850192910190611f61565b506101408201518051611c2891600a840191602090910190611fc6565b506101608201518051611c4591600b840191602090910190611fc6565b50610180820151600c8201805460ff19169115159190911790556101a0820151600d8201556101c0820151600e8201556101e0820151600f820155610200909101516010909101555050565b611c99612001565b60008281526003602081815260409283902083516102208101855281548152600182015481840152600282015481860152928101546001600160a01b0390811660608501526004820154166080840152600581015460a0840152600681015460c0840152600781015460e0840152600881015461010084015260098101805485518185028101850190965280865293949193610120860193830182828015611d6a57602002820191906000526020600020905b81546001600160a01b03168152600190910190602001808311611d4c575b50505050508152602001600a8201805480602002602001604051908101604052809291908181526020018280548015611dc257602002820191906000526020600020905b815481526020019060010190808311611dae575b50505050508152602001600b8201805480602002602001604051908101604052809291908181526020018280548015611e1a57602002820191906000526020600020905b815481526020019060010190808311611e06575b5050509183525050600c82015460ff1615156020820152600d8201546040820152600e8201546060820152600f820154608082015260109091015460a09091015292915050565b60008181526003602090815260409182902060090180548351818402810184019094528084526060939283018282801561094f57602002820191906000526020600020905b81546001600160a01b03168152600190910190602001808311611ea65750505050509050919050565b60025481565b6001546001600160a01b031681565b600082611ef357506000611f27565b82820282848281611f1457634e487b7160e01b600052601260045260246000fd5b0414611f24576000915050611f27565b90505b92915050565b600081611f3c57506000611f27565b818381611f5957634e487b7160e01b600052601260045260246000fd5b049392505050565b828054828255906000526020600020908101928215611fb6579160200282015b82811115611fb657825182546001600160a01b0319166001600160a01b03909116178255602090920191600190910190611f81565b50611fc29291506120f3565b5090565b828054828255906000526020600020908101928215611fb6579160200282015b82811115611fb6578251825591602001919060010190611fe6565b60405180610220016040528060008152602001600081526020016000815260200160006001600160a01b0316815260200160006001600160a01b0316815260200160008152602001600081526020016000815260200160008152602001606081526020016060815260200160608152602001600015158152602001600081526020016000815260200160008152602001600081525090565b828054828255906000526020600020908101928215611fb65760005260206000209182015b82811115611fb65782548255916001019190600101906120be565b50805460008255906000526020600020908101906109ab91905b5b80821115611fc257600081556001016120f4565b600060208284031215612119578081fd5b5035919050565b60008060408385031215612132578081fd5b50508035926020909101359150565b600080600060608486031215612155578081fd5b505081359360208301359350604090920135919050565b60008060008060808587031215612181578081fd5b5050823594602084013594506040840135936060013592509050565b6001600160a01b03169052565b6000815180845260208085019450808401835b838110156121e25781516001600160a01b0316875295820195908201906001016121bd565b509495945050505050565b6000815180845260208085019450808401835b838110156121e257815187529582019590820190600101612200565b15159052565b6001600160a01b0391909116815260200190565b6001600160a01b039384168152919092166020820152604081019190915260600190565b6020808252825182820181905260009190848201906040850190845b8181101561229b5783516001600160a01b031683529284019291840191600101612276565b50909695505050505050565b6000602082526122ba60208301846121ed565b9392505050565b6020808252600b908201526a191bdddb9c185e5b595b9d60aa1b604082015260600190565b6000602082528251602083015260208301516040830152604083015160608301526060830151612319608084018261219d565b50608083015161232c60a084018261219d565b5060a083015160c083015260c083015160e083015260e0830151610100818185015280850151915050610120818185015280850151915050610220610140818186015261237d6102408601846121aa565b9250808601519050601f1961016081878603018188015261239e85846121ed565b9450808801519250506101808187860301818801526123bd85846121ed565b945080880151925050506101a06123d68187018361221c565b8601516101c0868101919091528601516101e080870191909152860151610200808701919091529095015193019290925250919050565b90815260200190565b9d8e5260208e019c909c5260408d019a909a526001600160a01b0398891660608d01529690971660808b015260a08a019490945260c089019290925260e088015261010087015215156101208601526101408501919091526101608401526101808301526101a08201526101c00190565b6000821982111561249a5761249a6124d1565b500190565b6000828210156124b1576124b16124d1565b500390565b60006000198214156124ca576124ca6124d1565b5060010190565b634e487b7160e01b600052601160045260246000fdfea2646970667358221220c3e404236e665015b14c90d50c849a20c58e2f671d9ec602c75d4764a696937564736f6c63430008010033",
  "immutableReferences": {},
  "source": "// SPDX-License-Identifier: MIT\r\npragma solidity ^0.8.1;\r\npragma experimental ABIEncoderV2;\r\n\r\nimport \"./propNFT.sol\";\r\n\r\ncontract morter {\r\n    propNFT nftContract;\r\n    address public tc;\r\n\r\n    constructor(propNFT _nftcontract) {\r\n        nftContract = _nftcontract;\r\n        tc = msg.sender;\r\n    }\r\n\r\n    struct House_property {\r\n        uint256 property_id;\r\n        uint256 price;\r\n        uint256 status;\r\n        address owner;\r\n        address mortgager;\r\n        uint256 mortgageamt;\r\n        uint256 downpayment;\r\n        uint256 capital_to_be_raised;\r\n        uint256 emi_to_be_paid;\r\n        address[] risk_free_investors;\r\n        uint256[] riskFreeInvestorPayment;\r\n        uint256[] riskFreeInvestorInvestment;\r\n        bool firstEmiDone;\r\n        uint256 totalInterestMonths;\r\n        uint256 interestMonthsLeft;\r\n        uint256 nftTokenId;\r\n        uint256 lastEMItimestamp;\r\n    }\r\n\r\n    uint256 public propertycounter = 0;\r\n\r\n    mapping(uint256 => House_property) public allproperties;\r\n\r\n    function listProperty(uint256 _price, uint256 tokenId) public {\r\n        // will be called by property lister\r\n        House_property memory prop;\r\n        prop.property_id = tokenId;\r\n        prop.price = _price;\r\n        prop.status = 100;\r\n        prop.owner = msg.sender;\r\n        prop.mortgager = address(0);\r\n        prop.mortgageamt = 0;\r\n        prop.capital_to_be_raised = 0;\r\n        prop.nftTokenId = tokenId;\r\n        prop.firstEmiDone = false;\r\n        allproperties[prop.property_id] = prop;\r\n        propertycounter += 1;\r\n        //nftContract.approveContract(address(this),tokenId);\r\n    }\r\n\r\n    //status\r\n    //0 not listed\r\n    //100) newly listed\r\n    //200) mortgage initiated\r\n    //300) risk free investors invested\r\n    //400) final trade done\r\n\r\n    function direct_buy_property(\r\n        uint256 property_id,\r\n        uint256 payToSeller,\r\n        uint256 payToTC\r\n    ) public payable {\r\n        //5% commission to TC for direct buying\r\n        //will be called by buyer\r\n        require(allproperties[property_id].status == 100);\r\n        require(allproperties[property_id].price != 0);\r\n        House_property memory prop = allproperties[property_id];\r\n        payable(prop.owner).transfer(payToSeller);\r\n        payable(tc).transfer(payToTC);\r\n        nftContract.transferFromOwnerToMortgager(\r\n            prop.owner,\r\n            msg.sender,\r\n            prop.nftTokenId\r\n        );\r\n        prop.owner = msg.sender;\r\n        prop.status = 0;\r\n        allproperties[property_id] = prop;\r\n    }\r\n\r\n    function initiate_mortgage(\r\n        uint256 property_id,\r\n        uint256 mortgage_amt,\r\n        uint256 _emi,\r\n        uint256 interestMonths\r\n    ) public payable {\r\n        //will be called by person who needs house on loan\r\n        require(allproperties[property_id].status == 100);\r\n        require(allproperties[property_id].price != 0);\r\n        require(allproperties[property_id].price > mortgage_amt);\r\n        require(allproperties[property_id].mortgager == address(0));\r\n        require(\r\n            msg.value == allproperties[property_id].price - mortgage_amt,\r\n            \"downpayment\"\r\n        );\r\n        House_property memory prop = allproperties[property_id];\r\n        prop.mortgager = msg.sender;\r\n        prop.mortgageamt = mortgage_amt;\r\n        prop.downpayment = allproperties[property_id].price - mortgage_amt;\r\n        prop.status = 200;\r\n        prop.capital_to_be_raised = prop.mortgageamt;\r\n        prop.emi_to_be_paid = _emi;\r\n        prop.interestMonthsLeft = interestMonths;\r\n        prop.totalInterestMonths = interestMonths;\r\n        allproperties[property_id] = prop;\r\n    }\r\n\r\n    function riskfreeinvest(uint256 property_id, uint256 rf_amount)\r\n        public\r\n        payable\r\n    {\r\n        //will be called by risk free investors everytime they want to invest\r\n        require(rf_amount != 0);\r\n        require(allproperties[property_id].status == 200);\r\n        require(allproperties[property_id].capital_to_be_raised >= rf_amount);\r\n        require(msg.value == rf_amount);\r\n        House_property storage prop = allproperties[property_id];\r\n        prop.capital_to_be_raised = prop.capital_to_be_raised - rf_amount;\r\n        if (prop.capital_to_be_raised == 0) {\r\n            prop.status = 300;\r\n        }\r\n        address[] storage allriskfreeinvestors = prop.risk_free_investors;\r\n        allriskfreeinvestors.push(msg.sender);\r\n        prop.riskFreeInvestorInvestment.push(rf_amount);\r\n        uint256 returnForRFI = tryMul(2, rf_amount); //0.2% fixed returns\r\n        uint256 payToRiskFreeInvestor = tryDiv(returnForRFI, 1000);\r\n        prop.riskFreeInvestorPayment.push(payToRiskFreeInvestor);\r\n        allproperties[property_id] = prop;\r\n    }\r\n\r\n    function trade(uint256 property_id) public payable {\r\n        //will be called by trading company to finalise trade\r\n        require(msg.sender == tc);\r\n        require(allproperties[property_id].status == 300);\r\n        House_property memory prop = allproperties[property_id];\r\n        require(msg.value == prop.price - prop.downpayment);\r\n        //prop owner gets his/her price and exits\r\n        payable(prop.owner).transfer(prop.price);\r\n        //here prop.owner is original seller and contract has approval for transfer\r\n        nftContract.transferFromMortgagerToTC(prop.owner, tc, prop.nftTokenId);\r\n        prop.owner = prop.mortgager;\r\n        prop.status = 400;\r\n        allproperties[property_id] = prop;\r\n    }\r\n\r\n    function payEmi(uint256 property_id, uint256 penaltyAmount) public payable {\r\n        //will be called by mortgager to pay EMI\r\n        House_property storage prop = allproperties[property_id];\r\n        require(prop.status == 400);\r\n        require(prop.interestMonthsLeft > 0);\r\n        require(msg.sender == prop.mortgager);\r\n        // here penaltyAmount is the total amount after adding 2 emis and penalty\r\n        if (penaltyAmount == 0) require(msg.value == prop.emi_to_be_paid);\r\n        else require(msg.value == penaltyAmount);\r\n\r\n        //first emi flag\r\n        if (prop.firstEmiDone == false) {\r\n            prop.firstEmiDone = true;\r\n        }\r\n\r\n        // transfer returns to risk free investors\r\n        address[] storage allriskfreeinvestors = prop.risk_free_investors;\r\n        uint256 count_of_rf_investors = allriskfreeinvestors.length;\r\n        uint256 totalRiskFreePayment = 0;\r\n        for (uint256 i = 0; i < count_of_rf_investors; i++) {\r\n            payable(allriskfreeinvestors[i]).transfer(\r\n                prop.riskFreeInvestorPayment[i]\r\n            );\r\n            totalRiskFreePayment += prop.riskFreeInvestorPayment[i];\r\n        }\r\n\r\n        //pay rest of amount to trading company\r\n        uint256 payToTC = 0;\r\n        if (penaltyAmount == 0) {\r\n            payToTC = prop.emi_to_be_paid - totalRiskFreePayment;\r\n            prop.interestMonthsLeft = prop.interestMonthsLeft - 1;\r\n        } else {\r\n            payToTC = penaltyAmount - totalRiskFreePayment;\r\n            prop.interestMonthsLeft = prop.interestMonthsLeft - 2;\r\n        }\r\n\r\n        payable(tc).transfer(payToTC);\r\n\r\n        //store last emi timestamp\r\n        prop.lastEMItimestamp = block.timestamp;\r\n\r\n        // If last emi successfully paid then,\r\n        if (prop.interestMonthsLeft == 0) {\r\n            //nft transferred to mortgager\r\n            nftContract.transferFromTCToMortgager(\r\n                tc,\r\n                prop.mortgager,\r\n                prop.nftTokenId\r\n            );\r\n\r\n            // transfer investment to risk free investors\r\n            address[] storage allriskfreeinvestors1 = prop.risk_free_investors;\r\n            uint256 count_of_rf_investors1 = allriskfreeinvestors1.length;\r\n            for (uint256 i = 0; i < count_of_rf_investors1; i++) {\r\n                payable(allriskfreeinvestors1[i]).transfer(\r\n                    prop.riskFreeInvestorInvestment[i]\r\n                );\r\n            }\r\n\r\n            // reset attributes of property so that it can be sold again\r\n            prop.price = 0;\r\n            prop.status = 0;\r\n            prop.mortgager = address(0);\r\n            prop.mortgageamt = 0;\r\n            prop.downpayment = 0;\r\n            prop.capital_to_be_raised = 0;\r\n            delete prop.risk_free_investors;\r\n            delete prop.riskFreeInvestorPayment;\r\n            delete prop.riskFreeInvestorInvestment;\r\n            prop.firstEmiDone = false;\r\n            prop.lastEMItimestamp = 0;\r\n        }\r\n\r\n        allproperties[property_id] = prop;\r\n    }\r\n\r\n    function snatchNFT(uint256 property_id) public payable {\r\n        House_property storage prop = allproperties[property_id];\r\n        require(msg.sender == tc);\r\n        require(msg.value == prop.price);\r\n        uint256 no_of_months_emi_paid = prop.totalInterestMonths -\r\n            prop.interestMonthsLeft;\r\n        uint256 totalEMIPaid = tryMul(\r\n            no_of_months_emi_paid,\r\n            prop.emi_to_be_paid\r\n        );\r\n        uint256 totalEMItoBePaid = tryMul(\r\n            prop.totalInterestMonths,\r\n            prop.emi_to_be_paid\r\n        );\r\n        // If mortgager defaults then, calculate his liabilities\r\n        uint256 actualLiability = totalEMItoBePaid - totalEMIPaid;\r\n        uint256 buyerExitAmount = prop.price - actualLiability;\r\n\r\n        // trading company snatches the property and sends remaining amount to mortgager and mortgager exits\r\n        payable(prop.mortgager).transfer(buyerExitAmount);\r\n\r\n        // transfer investment to risk free investors\r\n        address[] storage allriskfreeinvestors = prop.risk_free_investors;\r\n        uint256 count_of_rf_investors = allriskfreeinvestors.length;\r\n        for (uint256 i = 0; i < count_of_rf_investors; i++) {\r\n            payable(allriskfreeinvestors[i]).transfer(\r\n                prop.riskFreeInvestorInvestment[i]\r\n            );\r\n        }\r\n\r\n        // reset attributes of property so that it can be sold again\r\n        prop.price = 0;\r\n        prop.status = 0;\r\n        prop.owner = tc;\r\n        prop.mortgager = address(0);\r\n        prop.mortgageamt = 0;\r\n        prop.downpayment = 0;\r\n        prop.capital_to_be_raised = 0;\r\n        delete prop.risk_free_investors;\r\n        delete prop.riskFreeInvestorPayment;\r\n        delete prop.riskFreeInvestorInvestment;\r\n        prop.firstEmiDone = false;\r\n        prop.lastEMItimestamp = 0;\r\n\r\n        allproperties[property_id] = prop;\r\n    }\r\n\r\n    function getContractBalance() public view returns (uint256) {\r\n        return address(this).balance;\r\n    }\r\n\r\n    function getHouseDetails(uint256 property_id)\r\n        public\r\n        view\r\n        returns (House_property memory)\r\n    {\r\n        return allproperties[property_id];\r\n    }\r\n\r\n    function getAddresses(uint256 property_id)\r\n        public\r\n        view\r\n        returns (address[] memory)\r\n    {\r\n        return allproperties[property_id].risk_free_investors;\r\n    }\r\n\r\n    function getRiskFreeInvestorInvestment(uint256 property_id)\r\n        public\r\n        view\r\n        returns (uint256[] memory)\r\n    {\r\n        return allproperties[property_id].riskFreeInvestorInvestment;\r\n    }\r\n\r\n    function getRiskFreeInvestorPayment(uint256 property_id)\r\n        public\r\n        view\r\n        returns (uint256[] memory)\r\n    {\r\n        return allproperties[property_id].riskFreeInvestorPayment;\r\n    }\r\n\r\n    function tryMul(uint256 a, uint256 b) internal pure returns (uint256) {\r\n        unchecked {\r\n            if (a == 0) return (0);\r\n            uint256 c = a * b;\r\n            if (c / a != b) return (0);\r\n            return (c);\r\n        }\r\n    }\r\n\r\n    function tryDiv(uint256 a, uint256 b) internal pure returns (uint256) {\r\n        unchecked {\r\n            if (b == 0) return (0);\r\n            return (a / b);\r\n        }\r\n    }\r\n\r\n    function depositEther() public payable {\r\n        require(msg.sender == tc);\r\n    }\r\n\r\n    function withdrawEther() public payable {\r\n        require(msg.sender == tc);\r\n        payable(tc).transfer(address(this).balance);\r\n    }\r\n}\r\n",
  "sourcePath": "D:\\ETHINdia\\MetaEstate\\client\\contracts\\morter.sol",
  "compiler": {
    "name": "solc",
    "version": "0.8.1+commit.df193b15.Emscripten.clang"
  },
  "schemaVersion": "3.4.11",
  "updatedAt": "2022-12-03T07:54:17.557Z",
  "networkType": "ethereum",
  "devdoc": {
    "kind": "dev",
    "methods": {},
    "version": 1
  },
  "userdoc": {
    "kind": "user",
    "methods": {},
    "version": 1
  }
}