{
  "contractName": "propNFT",
  "abi": [
    {
      "inputs": [],
      "stateMutability": "nonpayable",
      "type": "constructor"
    },
    {
      "anonymous": false,
      "inputs": [
        {
          "indexed": true,
          "internalType": "address",
          "name": "owner",
          "type": "address"
        },
        {
          "indexed": true,
          "internalType": "address",
          "name": "approved",
          "type": "address"
        },
        {
          "indexed": true,
          "internalType": "uint256",
          "name": "tokenId",
          "type": "uint256"
        }
      ],
      "name": "Approval",
      "type": "event"
    },
    {
      "anonymous": false,
      "inputs": [
        {
          "indexed": true,
          "internalType": "address",
          "name": "owner",
          "type": "address"
        },
        {
          "indexed": true,
          "internalType": "address",
          "name": "operator",
          "type": "address"
        },
        {
          "indexed": false,
          "internalType": "bool",
          "name": "approved",
          "type": "bool"
        }
      ],
      "name": "ApprovalForAll",
      "type": "event"
    },
    {
      "anonymous": false,
      "inputs": [
        {
          "indexed": true,
          "internalType": "address",
          "name": "from",
          "type": "address"
        },
        {
          "indexed": true,
          "internalType": "address",
          "name": "to",
          "type": "address"
        },
        {
          "indexed": true,
          "internalType": "uint256",
          "name": "tokenId",
          "type": "uint256"
        }
      ],
      "name": "Transfer",
      "type": "event"
    },
    {
      "inputs": [],
      "name": "_tokenIds",
      "outputs": [
        {
          "internalType": "uint256",
          "name": "_value",
          "type": "uint256"
        }
      ],
      "stateMutability": "view",
      "type": "function"
    },
    {
      "inputs": [
        {
          "internalType": "address",
          "name": "to",
          "type": "address"
        },
        {
          "internalType": "uint256",
          "name": "tokenId",
          "type": "uint256"
        }
      ],
      "name": "approve",
      "outputs": [],
      "stateMutability": "nonpayable",
      "type": "function"
    },
    {
      "inputs": [
        {
          "internalType": "address",
          "name": "owner",
          "type": "address"
        }
      ],
      "name": "balanceOf",
      "outputs": [
        {
          "internalType": "uint256",
          "name": "",
          "type": "uint256"
        }
      ],
      "stateMutability": "view",
      "type": "function"
    },
    {
      "inputs": [
        {
          "internalType": "uint256",
          "name": "tokenId",
          "type": "uint256"
        }
      ],
      "name": "getApproved",
      "outputs": [
        {
          "internalType": "address",
          "name": "",
          "type": "address"
        }
      ],
      "stateMutability": "view",
      "type": "function"
    },
    {
      "inputs": [
        {
          "internalType": "address",
          "name": "owner",
          "type": "address"
        },
        {
          "internalType": "address",
          "name": "operator",
          "type": "address"
        }
      ],
      "name": "isApprovedForAll",
      "outputs": [
        {
          "internalType": "bool",
          "name": "",
          "type": "bool"
        }
      ],
      "stateMutability": "view",
      "type": "function"
    },
    {
      "inputs": [],
      "name": "name",
      "outputs": [
        {
          "internalType": "string",
          "name": "",
          "type": "string"
        }
      ],
      "stateMutability": "view",
      "type": "function"
    },
    {
      "inputs": [
        {
          "internalType": "uint256",
          "name": "tokenId",
          "type": "uint256"
        }
      ],
      "name": "ownerOf",
      "outputs": [
        {
          "internalType": "address",
          "name": "",
          "type": "address"
        }
      ],
      "stateMutability": "view",
      "type": "function"
    },
    {
      "inputs": [
        {
          "internalType": "address",
          "name": "from",
          "type": "address"
        },
        {
          "internalType": "address",
          "name": "to",
          "type": "address"
        },
        {
          "internalType": "uint256",
          "name": "tokenId",
          "type": "uint256"
        }
      ],
      "name": "safeTransferFrom",
      "outputs": [],
      "stateMutability": "nonpayable",
      "type": "function"
    },
    {
      "inputs": [
        {
          "internalType": "address",
          "name": "from",
          "type": "address"
        },
        {
          "internalType": "address",
          "name": "to",
          "type": "address"
        },
        {
          "internalType": "uint256",
          "name": "tokenId",
          "type": "uint256"
        },
        {
          "internalType": "bytes",
          "name": "data",
          "type": "bytes"
        }
      ],
      "name": "safeTransferFrom",
      "outputs": [],
      "stateMutability": "nonpayable",
      "type": "function"
    },
    {
      "inputs": [
        {
          "internalType": "address",
          "name": "operator",
          "type": "address"
        },
        {
          "internalType": "bool",
          "name": "approved",
          "type": "bool"
        }
      ],
      "name": "setApprovalForAll",
      "outputs": [],
      "stateMutability": "nonpayable",
      "type": "function"
    },
    {
      "inputs": [
        {
          "internalType": "bytes4",
          "name": "interfaceId",
          "type": "bytes4"
        }
      ],
      "name": "supportsInterface",
      "outputs": [
        {
          "internalType": "bool",
          "name": "",
          "type": "bool"
        }
      ],
      "stateMutability": "view",
      "type": "function"
    },
    {
      "inputs": [],
      "name": "symbol",
      "outputs": [
        {
          "internalType": "string",
          "name": "",
          "type": "string"
        }
      ],
      "stateMutability": "view",
      "type": "function"
    },
    {
      "inputs": [
        {
          "internalType": "uint256",
          "name": "tokenId",
          "type": "uint256"
        }
      ],
      "name": "tokenURI",
      "outputs": [
        {
          "internalType": "string",
          "name": "",
          "type": "string"
        }
      ],
      "stateMutability": "view",
      "type": "function"
    },
    {
      "inputs": [
        {
          "internalType": "address",
          "name": "from",
          "type": "address"
        },
        {
          "internalType": "address",
          "name": "to",
          "type": "address"
        },
        {
          "internalType": "uint256",
          "name": "tokenId",
          "type": "uint256"
        }
      ],
      "name": "transferFrom",
      "outputs": [],
      "stateMutability": "nonpayable",
      "type": "function"
    },
    {
      "inputs": [
        {
          "internalType": "address",
          "name": "recipient",
          "type": "address"
        },
        {
          "internalType": "string",
          "name": "tokenURI",
          "type": "string"
        }
      ],
      "name": "mintandApproveNFT",
      "outputs": [
        {
          "internalType": "uint256",
          "name": "",
          "type": "uint256"
        }
      ],
      "stateMutability": "nonpayable",
      "type": "function"
    },
    {
      "inputs": [
        {
          "internalType": "address",
          "name": "contractToApprove",
          "type": "address"
        },
        {
          "internalType": "uint256",
          "name": "tokenId",
          "type": "uint256"
        }
      ],
      "name": "approveContract",
      "outputs": [],
      "stateMutability": "nonpayable",
      "type": "function"
    },
    {
      "inputs": [
        {
          "internalType": "address",
          "name": "from",
          "type": "address"
        },
        {
          "internalType": "address",
          "name": "to",
          "type": "address"
        },
        {
          "internalType": "uint256",
          "name": "tokenId",
          "type": "uint256"
        }
      ],
      "name": "transferFromOwnerToMortgager",
      "outputs": [],
      "stateMutability": "nonpayable",
      "type": "function"
    },
    {
      "inputs": [
        {
          "internalType": "address",
          "name": "from",
          "type": "address"
        },
        {
          "internalType": "address",
          "name": "to",
          "type": "address"
        },
        {
          "internalType": "uint256",
          "name": "tokenId",
          "type": "uint256"
        }
      ],
      "name": "transferFromMortgagerToTC",
      "outputs": [],
      "stateMutability": "nonpayable",
      "type": "function"
    },
    {
      "inputs": [
        {
          "internalType": "address",
          "name": "from",
          "type": "address"
        },
        {
          "internalType": "address",
          "name": "to",
          "type": "address"
        },
        {
          "internalType": "uint256",
          "name": "tokenId",
          "type": "uint256"
        }
      ],
      "name": "transferFromTCToMortgager",
      "outputs": [],
      "stateMutability": "nonpayable",
      "type": "function"
    }
  ],
  "bytecode": "0x60806040523480156200001157600080fd5b506040805180820182526007808252661c1c9bdc13919560ca1b602080840182815285518087019096529285528401528151919291620000549160009162000073565b5080516200006a90600190602084019062000073565b50505062000156565b828054620000819062000119565b90600052602060002090601f016020900481019282620000a55760008555620000f0565b82601f10620000c057805160ff1916838001178555620000f0565b82800160010185558215620000f0579182015b82811115620000f0578251825591602001919060010190620000d3565b50620000fe92915062000102565b5090565b5b80821115620000fe576000815560010162000103565b6002810460018216806200012e57607f821691505b602082108114156200015057634e487b7160e01b600052602260045260246000fd5b50919050565b61177980620001666000396000f3fe608060405234801561001057600080fd5b50600436106101215760003560e01c80635119d728116100ad578063a22cb46511610071578063a22cb46514610233578063aa46a40014610246578063b88d4fde1461024e578063c87b56dd14610261578063e985e9c51461027457610121565b80635119d728146101cc5780635e65aff8146101f25780636352211e1461020557806370a082311461021857806395d89b411461022b57610121565b80630d1fcbd3116100f45780630d1fcbd31461019957806323b872dd146101b9578063251e2e5f146101cc57806341172efd146101cc57806342842e0e146101df57610121565b806301ffc9a71461012657806306fdde031461014f578063081812fc14610164578063095ea7b314610184575b600080fd5b610139610134366004611211565b610287565b604051610146919061130d565b60405180910390f35b6101576102cf565b6040516101469190611318565b610177610172366004611249565b610361565b60405161014691906112bc565b6101976101923660046111e8565b610388565b005b6101ac6101a7366004611189565b610429565b6040516101469190611662565b6101976101c736600461109b565b61045d565b6101976101da36600461109b565b610495565b6101976101ed36600461109b565b6104a0565b6101976102003660046111e8565b6104bb565b610177610213366004611249565b6104c9565b6101ac61022636600461104f565b6104fd565b610157610541565b61019761024136600461114f565b610550565b6101ac610562565b61019761025c3660046110d6565b610568565b61015761026f366004611249565b6105a7565b610139610282366004611069565b6106ac565b60006001600160e01b031982166380ac58cd60e01b14806102b857506001600160e01b03198216635b5e139f60e01b145b806102c757506102c7826106da565b90505b919050565b6060600080546102de906116c6565b80601f016020809104026020016040519081016040528092919081815260200182805461030a906116c6565b80156103575780601f1061032c57610100808354040283529160200191610357565b820191906000526020600020905b81548152906001019060200180831161033a57829003601f168201915b5050505050905090565b600061036c826106f3565b506000908152600460205260409020546001600160a01b031690565b6000610393826104c9565b9050806001600160a01b0316836001600160a01b031614156103d05760405162461bcd60e51b81526004016103c7906115c4565b60405180910390fd5b806001600160a01b03166103e261071b565b6001600160a01b031614806103fe57506103fe8161028261071b565b61041a5760405162461bcd60e51b81526004016103c790611605565b610424838361071f565b505050565b600080610436600761078d565b90506104428482610791565b61044c6007610886565b610456818461088f565b9392505050565b61046e61046861071b565b826108d3565b61048a5760405162461bcd60e51b81526004016103c79061132b565b610424838383610931565b61042483838361045d565b61042483838360405180602001604052806000815250610568565b6104c58282610388565b5050565b6000806104d583610a6e565b90506001600160a01b0381166102c75760405162461bcd60e51b81526004016103c79061158d565b60006001600160a01b0382166105255760405162461bcd60e51b81526004016103c7906114c1565b506001600160a01b031660009081526003602052604090205490565b6060600180546102de906116c6565b6104c561055b61071b565b8383610a89565b60075481565b61057961057361071b565b836108d3565b6105955760405162461bcd60e51b81526004016103c79061132b565b6105a184848484610b2c565b50505050565b60606105b2826106f3565b600082815260066020526040812080546105cb906116c6565b80601f01602080910402602001604051908101604052809291908181526020018280546105f7906116c6565b80156106445780601f1061061957610100808354040283529160200191610644565b820191906000526020600020905b81548152906001019060200180831161062757829003601f168201915b505050505090506000610655610b5f565b9050805160001415610669575090506102ca565b81511561069b57808260405160200161068392919061128d565b604051602081830303815290604052925050506102ca565b6106a484610b71565b949350505050565b6001600160a01b03918216600090815260056020908152604080832093909416825291909152205460ff1690565b6001600160e01b031981166301ffc9a760e01b14919050565b6106fc81610bd7565b6107185760405162461bcd60e51b81526004016103c79061158d565b50565b3390565b600081815260046020526040902080546001600160a01b0319166001600160a01b0384169081179091558190610754826104c9565b6001600160a01b03167f8c5be1e5ebec7d5bd14f71427d1e84f3dd0314c0f7b2291e5b200ac8c7c3b92560405160405180910390a45050565b5490565b6001600160a01b0382166107b75760405162461bcd60e51b81526004016103c790611558565b6107c081610bd7565b156107dd5760405162461bcd60e51b81526004016103c79061140f565b6107eb600083836001610bf4565b6107f481610bd7565b156108115760405162461bcd60e51b81526004016103c79061140f565b6001600160a01b038216600081815260036020908152604080832080546001019055848352600290915280822080546001600160a01b0319168417905551839291907fddf252ad1be2c89b69c2b068fc378daa952ba7f163c4a11628f55a4df523b3ef908290a46104c56000838360016105a1565b80546001019055565b61089882610bd7565b6108b45760405162461bcd60e51b81526004016103c79061150a565b6000828152600660209081526040909120825161042492840190610f29565b6000806108df836104c9565b9050806001600160a01b0316846001600160a01b03161480610906575061090681856106ac565b806106a45750836001600160a01b031661091f84610361565b6001600160a01b031614949350505050565b826001600160a01b0316610944826104c9565b6001600160a01b03161461096a5760405162461bcd60e51b81526004016103c7906113ca565b6001600160a01b0382166109905760405162461bcd60e51b81526004016103c790611446565b61099d8383836001610bf4565b826001600160a01b03166109b0826104c9565b6001600160a01b0316146109d65760405162461bcd60e51b81526004016103c7906113ca565b600081815260046020908152604080832080546001600160a01b03199081169091556001600160a01b0387811680865260038552838620805460001901905590871680865283862080546001019055868652600290945282852080549092168417909155905184937fddf252ad1be2c89b69c2b068fc378daa952ba7f163c4a11628f55a4df523b3ef91a461042483838360016105a1565b6000908152600260205260409020546001600160a01b031690565b816001600160a01b0316836001600160a01b03161415610abb5760405162461bcd60e51b81526004016103c79061148a565b6001600160a01b0383811660008181526005602090815260408083209487168084529490915290819020805460ff1916851515179055517f17307eab39ab6107e8899845ad3d59bd9653f200f220920489ca2b5937696c3190610b1f90859061130d565b60405180910390a3505050565b610b37848484610931565b610b4384848484610c7c565b6105a15760405162461bcd60e51b81526004016103c790611378565b60408051602081019091526000815290565b6060610b7c826106f3565b6000610b86610b5f565b90506000815111610ba65760405180602001604052806000815250610456565b80610bb084610d97565b604051602001610bc192919061128d565b6040516020818303038152906040529392505050565b600080610be383610a6e565b6001600160a01b0316141592915050565b60018111156105a1576001600160a01b03841615610c3a576001600160a01b03841660009081526003602052604081208054839290610c34908490611683565b90915550505b6001600160a01b038316156105a1576001600160a01b03831660009081526003602052604081208054839290610c7190849061166b565b909155505050505050565b6000610c90846001600160a01b0316610e42565b15610d8c57836001600160a01b031663150b7a02610cac61071b565b8786866040518563ffffffff1660e01b8152600401610cce94939291906112d0565b602060405180830381600087803b158015610ce857600080fd5b505af1925050508015610d18575060408051601f3d908101601f19168201909252610d159181019061122d565b60015b610d72573d808015610d46576040519150601f19603f3d011682016040523d82523d6000602084013e610d4b565b606091505b508051610d6a5760405162461bcd60e51b81526004016103c790611378565b805181602001fd5b6001600160e01b031916630a85bd0160e11b1490506106a4565b506001949350505050565b60606000610da483610e51565b600101905060008167ffffffffffffffff811115610dd257634e487b7160e01b600052604160045260246000fd5b6040519080825280601f01601f191660200182016040528015610dfc576020820181803683370190505b5090508181016020015b600019016f181899199a1a9b1b9c1cb0b131b232b360811b600a86061a8153600a8504945084610e3557610e3a565b610e06565b509392505050565b6001600160a01b03163b151590565b60008072184f03e93ff9f4daa797ed6e38ed64bf6a1f0160401b8310610e905772184f03e93ff9f4daa797ed6e38ed64bf6a1f0160401b830492506040015b6d04ee2d6d415b85acef81000000008310610ebc576d04ee2d6d415b85acef8100000000830492506020015b662386f26fc100008310610eda57662386f26fc10000830492506010015b6305f5e1008310610ef2576305f5e100830492506008015b6127108310610f0657612710830492506004015b60648310610f18576064830492506002015b600a83106102c75760010192915050565b828054610f35906116c6565b90600052602060002090601f016020900481019282610f575760008555610f9d565b82601f10610f7057805160ff1916838001178555610f9d565b82800160010185558215610f9d579182015b82811115610f9d578251825591602001919060010190610f82565b50610fa9929150610fad565b5090565b5b80821115610fa95760008155600101610fae565b600067ffffffffffffffff80841115610fdd57610fdd611717565b604051601f8501601f19908116603f0116810190828211818310171561100557611005611717565b8160405280935085815286868601111561101e57600080fd5b858560208301376000602087830101525050509392505050565b80356001600160a01b03811681146102ca57600080fd5b600060208284031215611060578081fd5b61045682611038565b6000806040838503121561107b578081fd5b61108483611038565b915061109260208401611038565b90509250929050565b6000806000606084860312156110af578081fd5b6110b884611038565b92506110c660208501611038565b9150604084013590509250925092565b600080600080608085870312156110eb578081fd5b6110f485611038565b935061110260208601611038565b925060408501359150606085013567ffffffffffffffff811115611124578182fd5b8501601f81018713611134578182fd5b61114387823560208401610fc2565b91505092959194509250565b60008060408385031215611161578182fd5b61116a83611038565b91506020830135801515811461117e578182fd5b809150509250929050565b6000806040838503121561119b578182fd5b6111a483611038565b9150602083013567ffffffffffffffff8111156111bf578182fd5b8301601f810185136111cf578182fd5b6111de85823560208401610fc2565b9150509250929050565b600080604083850312156111fa578182fd5b61120383611038565b946020939093013593505050565b600060208284031215611222578081fd5b81356104568161172d565b60006020828403121561123e578081fd5b81516104568161172d565b60006020828403121561125a578081fd5b5035919050565b6000815180845261127981602086016020860161169a565b601f01601f19169290920160200192915050565b6000835161129f81846020880161169a565b8351908301906112b381836020880161169a565b01949350505050565b6001600160a01b0391909116815260200190565b6001600160a01b038581168252841660208201526040810183905260806060820181905260009061130390830184611261565b9695505050505050565b901515815260200190565b6000602082526104566020830184611261565b6020808252602d908201527f4552433732313a2063616c6c6572206973206e6f7420746f6b656e206f776e6560408201526c1c881bdc88185c1c1c9bdd9959609a1b606082015260800190565b60208082526032908201527f4552433732313a207472616e7366657220746f206e6f6e20455243373231526560408201527131b2b4bb32b91034b6b83632b6b2b73a32b960711b606082015260800190565b60208082526025908201527f4552433732313a207472616e736665722066726f6d20696e636f72726563742060408201526437bbb732b960d91b606082015260800190565b6020808252601c908201527f4552433732313a20746f6b656e20616c7265616479206d696e74656400000000604082015260600190565b60208082526024908201527f4552433732313a207472616e7366657220746f20746865207a65726f206164646040820152637265737360e01b606082015260800190565b60208082526019908201527f4552433732313a20617070726f766520746f2063616c6c657200000000000000604082015260600190565b60208082526029908201527f4552433732313a2061646472657373207a65726f206973206e6f7420612076616040820152683634b21037bbb732b960b91b606082015260800190565b6020808252602e908201527f45524337323155524953746f726167653a2055524920736574206f66206e6f6e60408201526d32bc34b9ba32b73a103a37b5b2b760911b606082015260800190565b6020808252818101527f4552433732313a206d696e7420746f20746865207a65726f2061646472657373604082015260600190565b60208082526018908201527f4552433732313a20696e76616c696420746f6b656e2049440000000000000000604082015260600190565b60208082526021908201527f4552433732313a20617070726f76616c20746f2063757272656e74206f776e656040820152603960f91b606082015260800190565b6020808252603d908201527f4552433732313a20617070726f76652063616c6c6572206973206e6f7420746f60408201527f6b656e206f776e6572206f7220617070726f76656420666f7220616c6c000000606082015260800190565b90815260200190565b6000821982111561167e5761167e611701565b500190565b60008282101561169557611695611701565b500390565b60005b838110156116b557818101518382015260200161169d565b838111156105a15750506000910152565b6002810460018216806116da57607f821691505b602082108114156116fb57634e487b7160e01b600052602260045260246000fd5b50919050565b634e487b7160e01b600052601160045260246000fd5b634e487b7160e01b600052604160045260246000fd5b6001600160e01b03198116811461071857600080fdfea26469706673582212207fc993ad2984582a6e546735d7a0b4f70d7372e11fb31aa985ca05f628d0a9d364736f6c63430008010033",
  "immutableReferences": {},
  "source": "//Contract based on [https://docs.openzeppelin.com/contracts/3.x/erc721](https://docs.openzeppelin.com/contracts/3.x/erc721)\r\n// SPDX-License-Identifier: MIT\r\npragma solidity ^0.8.1;\r\n\r\nimport \"@openzeppelin/contracts/token/ERC721/ERC721.sol\";\r\nimport \"@openzeppelin/contracts/utils/Counters.sol\";\r\nimport \"@openzeppelin/contracts/token/ERC721/extensions/ERC721URIStorage.sol\";\r\n\r\ncontract propNFT is ERC721URIStorage {\r\n    using Counters for Counters.Counter;\r\n    Counters.Counter public _tokenIds;\r\n    constructor() ERC721(\"propNFT\", \"propNFT\") {}\r\n\r\n    function mintandApproveNFT(address recipient, string memory tokenURI)\r\n        public\r\n        returns (uint256)\r\n    {\r\n        \r\n        uint256 newItemId = _tokenIds.current();\r\n        _mint(recipient, newItemId);\r\n        _tokenIds.increment();\r\n        //approve(mortgagecontract,newItemId);\r\n        //approve(auctionContract,newItemId);\r\n        _setTokenURI(newItemId, tokenURI);\r\n\r\n        return newItemId;\r\n    }\r\n\r\n    function approveContract(address contractToApprove,uint tokenId)public\r\n    {\r\n        approve(contractToApprove,tokenId);\r\n    }\r\n\r\n    function transferFromOwnerToMortgager(address from, address to, uint tokenId)public\r\n    {\r\n        transferFrom(from,to,tokenId);\r\n    }\r\n\r\n    function transferFromMortgagerToTC(address from, address to, uint tokenId)public\r\n    {\r\n        transferFrom(from,to,tokenId);\r\n    }\r\n\r\n    function transferFromTCToMortgager(address from, address to, uint tokenId)public\r\n    {\r\n        transferFrom(from,to,tokenId);\r\n    }\r\n}",
  "sourcePath": "D:\\ETHINdia\\MetaEstate\\client\\contracts\\propNFT.sol",
  "compiler": {
    "name": "solc",
    "version": "0.8.1+commit.df193b15.Emscripten.clang"
  },
  "schemaVersion": "3.4.11",
  "updatedAt": "2022-12-02T18:28:12.644Z",
  "devdoc": {
    "kind": "dev",
    "methods": {
      "approve(address,uint256)": {
        "details": "See {IERC721-approve}."
      },
      "balanceOf(address)": {
        "details": "See {IERC721-balanceOf}."
      },
      "getApproved(uint256)": {
        "details": "See {IERC721-getApproved}."
      },
      "isApprovedForAll(address,address)": {
        "details": "See {IERC721-isApprovedForAll}."
      },
      "name()": {
        "details": "See {IERC721Metadata-name}."
      },
      "ownerOf(uint256)": {
        "details": "See {IERC721-ownerOf}."
      },
      "safeTransferFrom(address,address,uint256)": {
        "details": "See {IERC721-safeTransferFrom}."
      },
      "safeTransferFrom(address,address,uint256,bytes)": {
        "details": "See {IERC721-safeTransferFrom}."
      },
      "setApprovalForAll(address,bool)": {
        "details": "See {IERC721-setApprovalForAll}."
      },
      "supportsInterface(bytes4)": {
        "details": "See {IERC165-supportsInterface}."
      },
      "symbol()": {
        "details": "See {IERC721Metadata-symbol}."
      },
      "tokenURI(uint256)": {
        "details": "See {IERC721Metadata-tokenURI}."
      },
      "transferFrom(address,address,uint256)": {
        "details": "See {IERC721-transferFrom}."
      }
    },
    "version": 1
  },
  "userdoc": {
    "kind": "user",
    "methods": {},
    "version": 1
  }
}