{
  "contractName": "propNFT",
  "abi": [
    {
      "inputs": [],
      "stateMutability": "nonpayable",
      "type": "constructor"
    },
    {
      "anonymous": false,
      "inputs": [
        {
          "indexed": true,
          "internalType": "address",
          "name": "owner",
          "type": "address"
        },
        {
          "indexed": true,
          "internalType": "address",
          "name": "approved",
          "type": "address"
        },
        {
          "indexed": true,
          "internalType": "uint256",
          "name": "tokenId",
          "type": "uint256"
        }
      ],
      "name": "Approval",
      "type": "event"
    },
    {
      "anonymous": false,
      "inputs": [
        {
          "indexed": true,
          "internalType": "address",
          "name": "owner",
          "type": "address"
        },
        {
          "indexed": true,
          "internalType": "address",
          "name": "operator",
          "type": "address"
        },
        {
          "indexed": false,
          "internalType": "bool",
          "name": "approved",
          "type": "bool"
        }
      ],
      "name": "ApprovalForAll",
      "type": "event"
    },
    {
      "anonymous": false,
      "inputs": [
        {
          "indexed": true,
          "internalType": "address",
          "name": "from",
          "type": "address"
        },
        {
          "indexed": true,
          "internalType": "address",
          "name": "to",
          "type": "address"
        },
        {
          "indexed": true,
          "internalType": "uint256",
          "name": "tokenId",
          "type": "uint256"
        }
      ],
      "name": "Transfer",
      "type": "event"
    },
    {
      "inputs": [],
      "name": "_tokenIds",
      "outputs": [
        {
          "internalType": "uint256",
          "name": "_value",
          "type": "uint256"
        }
      ],
      "stateMutability": "view",
      "type": "function",
      "constant": true
    },
    {
      "inputs": [
        {
          "internalType": "address",
          "name": "to",
          "type": "address"
        },
        {
          "internalType": "uint256",
          "name": "tokenId",
          "type": "uint256"
        }
      ],
      "name": "approve",
      "outputs": [],
      "stateMutability": "nonpayable",
      "type": "function"
    },
    {
      "inputs": [
        {
          "internalType": "address",
          "name": "owner",
          "type": "address"
        }
      ],
      "name": "balanceOf",
      "outputs": [
        {
          "internalType": "uint256",
          "name": "",
          "type": "uint256"
        }
      ],
      "stateMutability": "view",
      "type": "function",
      "constant": true
    },
    {
      "inputs": [
        {
          "internalType": "uint256",
          "name": "tokenId",
          "type": "uint256"
        }
      ],
      "name": "getApproved",
      "outputs": [
        {
          "internalType": "address",
          "name": "",
          "type": "address"
        }
      ],
      "stateMutability": "view",
      "type": "function",
      "constant": true
    },
    {
      "inputs": [
        {
          "internalType": "address",
          "name": "owner",
          "type": "address"
        },
        {
          "internalType": "address",
          "name": "operator",
          "type": "address"
        }
      ],
      "name": "isApprovedForAll",
      "outputs": [
        {
          "internalType": "bool",
          "name": "",
          "type": "bool"
        }
      ],
      "stateMutability": "view",
      "type": "function",
      "constant": true
    },
    {
      "inputs": [],
      "name": "name",
      "outputs": [
        {
          "internalType": "string",
          "name": "",
          "type": "string"
        }
      ],
      "stateMutability": "view",
      "type": "function",
      "constant": true
    },
    {
      "inputs": [
        {
          "internalType": "uint256",
          "name": "tokenId",
          "type": "uint256"
        }
      ],
      "name": "ownerOf",
      "outputs": [
        {
          "internalType": "address",
          "name": "",
          "type": "address"
        }
      ],
      "stateMutability": "view",
      "type": "function",
      "constant": true
    },
    {
      "inputs": [
        {
          "internalType": "address",
          "name": "from",
          "type": "address"
        },
        {
          "internalType": "address",
          "name": "to",
          "type": "address"
        },
        {
          "internalType": "uint256",
          "name": "tokenId",
          "type": "uint256"
        }
      ],
      "name": "safeTransferFrom",
      "outputs": [],
      "stateMutability": "nonpayable",
      "type": "function"
    },
    {
      "inputs": [
        {
          "internalType": "address",
          "name": "from",
          "type": "address"
        },
        {
          "internalType": "address",
          "name": "to",
          "type": "address"
        },
        {
          "internalType": "uint256",
          "name": "tokenId",
          "type": "uint256"
        },
        {
          "internalType": "bytes",
          "name": "data",
          "type": "bytes"
        }
      ],
      "name": "safeTransferFrom",
      "outputs": [],
      "stateMutability": "nonpayable",
      "type": "function"
    },
    {
      "inputs": [
        {
          "internalType": "address",
          "name": "operator",
          "type": "address"
        },
        {
          "internalType": "bool",
          "name": "approved",
          "type": "bool"
        }
      ],
      "name": "setApprovalForAll",
      "outputs": [],
      "stateMutability": "nonpayable",
      "type": "function"
    },
    {
      "inputs": [
        {
          "internalType": "bytes4",
          "name": "interfaceId",
          "type": "bytes4"
        }
      ],
      "name": "supportsInterface",
      "outputs": [
        {
          "internalType": "bool",
          "name": "",
          "type": "bool"
        }
      ],
      "stateMutability": "view",
      "type": "function",
      "constant": true
    },
    {
      "inputs": [],
      "name": "symbol",
      "outputs": [
        {
          "internalType": "string",
          "name": "",
          "type": "string"
        }
      ],
      "stateMutability": "view",
      "type": "function",
      "constant": true
    },
    {
      "inputs": [
        {
          "internalType": "uint256",
          "name": "tokenId",
          "type": "uint256"
        }
      ],
      "name": "tokenURI",
      "outputs": [
        {
          "internalType": "string",
          "name": "",
          "type": "string"
        }
      ],
      "stateMutability": "view",
      "type": "function",
      "constant": true
    },
    {
      "inputs": [
        {
          "internalType": "address",
          "name": "from",
          "type": "address"
        },
        {
          "internalType": "address",
          "name": "to",
          "type": "address"
        },
        {
          "internalType": "uint256",
          "name": "tokenId",
          "type": "uint256"
        }
      ],
      "name": "transferFrom",
      "outputs": [],
      "stateMutability": "nonpayable",
      "type": "function"
    },
    {
      "inputs": [
        {
          "internalType": "address",
          "name": "recipient",
          "type": "address"
        },
        {
          "internalType": "string",
          "name": "tokenURI",
          "type": "string"
        }
      ],
      "name": "mintandApproveNFT",
      "outputs": [
        {
          "internalType": "uint256",
          "name": "",
          "type": "uint256"
        }
      ],
      "stateMutability": "nonpayable",
      "type": "function"
    },
    {
      "inputs": [
        {
          "internalType": "address",
          "name": "contractToApprove",
          "type": "address"
        },
        {
          "internalType": "uint256",
          "name": "tokenId",
          "type": "uint256"
        }
      ],
      "name": "approveContract",
      "outputs": [],
      "stateMutability": "nonpayable",
      "type": "function"
    },
    {
      "inputs": [
        {
          "internalType": "address",
          "name": "from",
          "type": "address"
        },
        {
          "internalType": "address",
          "name": "to",
          "type": "address"
        },
        {
          "internalType": "uint256",
          "name": "tokenId",
          "type": "uint256"
        }
      ],
      "name": "transferFromOwnerToMortgager",
      "outputs": [],
      "stateMutability": "nonpayable",
      "type": "function"
    },
    {
      "inputs": [
        {
          "internalType": "address",
          "name": "from",
          "type": "address"
        },
        {
          "internalType": "address",
          "name": "to",
          "type": "address"
        },
        {
          "internalType": "uint256",
          "name": "tokenId",
          "type": "uint256"
        }
      ],
      "name": "transferFromMortgagerToTC",
      "outputs": [],
      "stateMutability": "nonpayable",
      "type": "function"
    },
    {
      "inputs": [
        {
          "internalType": "address",
          "name": "from",
          "type": "address"
        },
        {
          "internalType": "address",
          "name": "to",
          "type": "address"
        },
        {
          "internalType": "uint256",
          "name": "tokenId",
          "type": "uint256"
        }
      ],
      "name": "transferFromTCToMortgager",
      "outputs": [],
      "stateMutability": "nonpayable",
      "type": "function"
    }
  ],
  "bytecode": "0x60806040523480156200001157600080fd5b506040805180820182526007808252661c1c9bdc13919560ca1b602080840182815285518087019096529285528401528151919291620000549160009162000073565b5080516200006a90600190602084019062000073565b50505062000156565b828054620000819062000119565b90600052602060002090601f016020900481019282620000a55760008555620000f0565b82601f10620000c057805160ff1916838001178555620000f0565b82800160010185558215620000f0579182015b82811115620000f0578251825591602001919060010190620000d3565b50620000fe92915062000102565b5090565b5b80821115620000fe576000815560010162000103565b6002810460018216806200012e57607f821691505b602082108114156200015057634e487b7160e01b600052602260045260246000fd5b50919050565b6116b180620001666000396000f3fe608060405234801561001057600080fd5b50600436106101215760003560e01c80635119d728116100ad578063a22cb46511610071578063a22cb46514610233578063aa46a40014610246578063b88d4fde1461024e578063c87b56dd14610261578063e985e9c51461027457610121565b80635119d728146101cc5780635e65aff8146101f25780636352211e1461020557806370a082311461021857806395d89b411461022b57610121565b80630d1fcbd3116100f45780630d1fcbd31461019957806323b872dd146101b9578063251e2e5f146101cc57806341172efd146101cc57806342842e0e146101df57610121565b806301ffc9a71461012657806306fdde031461014f578063081812fc14610164578063095ea7b314610184575b600080fd5b6101396101343660046110ef565b610287565b60405161014691906111eb565b60405180910390f35b6101576102cf565b60405161014691906111f6565b610177610172366004611127565b610361565b604051610146919061119a565b6101976101923660046110c6565b610388565b005b6101ac6101a7366004611067565b610429565b6040516101469190611541565b6101976101c7366004610f79565b61045d565b6101976101da366004610f79565b610495565b6101976101ed366004610f79565b6104a0565b6101976102003660046110c6565b6104bb565b610177610213366004611127565b6104c9565b6101ac610226366004610f2d565b6104fe565b610157610542565b61019761024136600461102d565b610551565b6101ac610563565b61019761025c366004610fb4565b610569565b61015761026f366004611127565b6105a8565b610139610282366004610f47565b6106ad565b60006001600160e01b031982166380ac58cd60e01b14806102b857506001600160e01b03198216635b5e139f60e01b145b806102c757506102c7826106db565b90505b919050565b6060600080546102de906115b9565b80601f016020809104026020016040519081016040528092919081815260200182805461030a906115b9565b80156103575780601f1061032c57610100808354040283529160200191610357565b820191906000526020600020905b81548152906001019060200180831161033a57829003601f168201915b5050505050905090565b600061036c826106f4565b506000908152600460205260409020546001600160a01b031690565b6000610393826104c9565b9050806001600160a01b0316836001600160a01b031614156103d05760405162461bcd60e51b81526004016103c7906114b2565b60405180910390fd5b806001600160a01b03166103e261071c565b6001600160a01b031614806103fe57506103fe8161028261071c565b61041a5760405162461bcd60e51b81526004016103c7906113e9565b6104248383610720565b505050565b600080610436600761078e565b90506104428482610792565b61044c6007610879565b6104568184610882565b9392505050565b61046e61046861071c565b826108c6565b61048a5760405162461bcd60e51b81526004016103c7906114f3565b610424838383610924565b61042483838361045d565b61042483838360405180602001604052806000815250610569565b6104c58282610388565b5050565b6000818152600260205260408120546001600160a01b0316806102c75760405162461bcd60e51b81526004016103c79061147b565b60006001600160a01b0382166105265760405162461bcd60e51b81526004016103c790611352565b506001600160a01b031660009081526003602052604090205490565b6060600180546102de906115b9565b6104c561055c61071c565b8383610a57565b60075481565b61057a61057461071c565b836108c6565b6105965760405162461bcd60e51b81526004016103c7906114f3565b6105a284848484610afa565b50505050565b60606105b3826106f4565b600082815260066020526040812080546105cc906115b9565b80601f01602080910402602001604051908101604052809291908181526020018280546105f8906115b9565b80156106455780601f1061061a57610100808354040283529160200191610645565b820191906000526020600020905b81548152906001019060200180831161062857829003601f168201915b505050505090506000610656610b2d565b905080516000141561066a575090506102ca565b81511561069c57808260405160200161068492919061116b565b604051602081830303815290604052925050506102ca565b6106a584610b3f565b949350505050565b6001600160a01b03918216600090815260056020908152604080832093909416825291909152205460ff1690565b6001600160e01b031981166301ffc9a760e01b14919050565b6106fd81610ba5565b6107195760405162461bcd60e51b81526004016103c79061147b565b50565b3390565b600081815260046020526040902080546001600160a01b0319166001600160a01b0384169081179091558190610755826104c9565b6001600160a01b03167f8c5be1e5ebec7d5bd14f71427d1e84f3dd0314c0f7b2291e5b200ac8c7c3b92560405160405180910390a45050565b5490565b6001600160a01b0382166107b85760405162461bcd60e51b81526004016103c790611446565b6107c181610ba5565b156107de5760405162461bcd60e51b81526004016103c7906112a0565b6107ea60008383610424565b6001600160a01b038216600090815260036020526040812080546001929061081390849061154a565b909155505060008181526002602052604080822080546001600160a01b0319166001600160a01b03861690811790915590518392907fddf252ad1be2c89b69c2b068fc378daa952ba7f163c4a11628f55a4df523b3ef908290a46104c560008383610424565b80546001019055565b61088b82610ba5565b6108a75760405162461bcd60e51b81526004016103c79061139b565b6000828152600660209081526040909120825161042492840190610e07565b6000806108d2836104c9565b9050806001600160a01b0316846001600160a01b031614806108f957506108f981856106ad565b806106a55750836001600160a01b031661091284610361565b6001600160a01b031614949350505050565b826001600160a01b0316610937826104c9565b6001600160a01b03161461095d5760405162461bcd60e51b81526004016103c79061125b565b6001600160a01b0382166109835760405162461bcd60e51b81526004016103c7906112d7565b61098e838383610424565b610999600082610720565b6001600160a01b03831660009081526003602052604081208054600192906109c2908490611576565b90915550506001600160a01b03821660009081526003602052604081208054600192906109f090849061154a565b909155505060008181526002602052604080822080546001600160a01b0319166001600160a01b0386811691821790925591518493918716917fddf252ad1be2c89b69c2b068fc378daa952ba7f163c4a11628f55a4df523b3ef91a4610424838383610424565b816001600160a01b0316836001600160a01b03161415610a895760405162461bcd60e51b81526004016103c79061131b565b6001600160a01b0383811660008181526005602090815260408083209487168084529490915290819020805460ff1916851515179055517f17307eab39ab6107e8899845ad3d59bd9653f200f220920489ca2b5937696c3190610aed9085906111eb565b60405180910390a3505050565b610b05848484610924565b610b1184848484610bc2565b6105a25760405162461bcd60e51b81526004016103c790611209565b60408051602081019091526000815290565b6060610b4a826106f4565b6000610b54610b2d565b90506000815111610b745760405180602001604052806000815250610456565b80610b7e84610cdd565b604051602001610b8f92919061116b565b6040516020818303038152906040529392505050565b6000908152600260205260409020546001600160a01b0316151590565b6000610bd6846001600160a01b0316610df8565b15610cd257836001600160a01b031663150b7a02610bf261071c565b8786866040518563ffffffff1660e01b8152600401610c1494939291906111ae565b602060405180830381600087803b158015610c2e57600080fd5b505af1925050508015610c5e575060408051601f3d908101601f19168201909252610c5b9181019061110b565b60015b610cb8573d808015610c8c576040519150601f19603f3d011682016040523d82523d6000602084013e610c91565b606091505b508051610cb05760405162461bcd60e51b81526004016103c790611209565b805181602001fd5b6001600160e01b031916630a85bd0160e11b1490506106a5565b506001949350505050565b606081610d0257506040805180820190915260018152600360fc1b60208201526102ca565b8160005b8115610d2c5780610d16816115f4565b9150610d259050600a83611562565b9150610d06565b60008167ffffffffffffffff811115610d5557634e487b7160e01b600052604160045260246000fd5b6040519080825280601f01601f191660200182016040528015610d7f576020820181803683370190505b5090505b84156106a557610d94600183611576565b9150610da1600a8661160f565b610dac90603061154a565b60f81b818381518110610dcf57634e487b7160e01b600052603260045260246000fd5b60200101906001600160f81b031916908160001a905350610df1600a86611562565b9450610d83565b6001600160a01b03163b151590565b828054610e13906115b9565b90600052602060002090601f016020900481019282610e355760008555610e7b565b82601f10610e4e57805160ff1916838001178555610e7b565b82800160010185558215610e7b579182015b82811115610e7b578251825591602001919060010190610e60565b50610e87929150610e8b565b5090565b5b80821115610e875760008155600101610e8c565b600067ffffffffffffffff80841115610ebb57610ebb61164f565b604051601f8501601f19908116603f01168101908282118183101715610ee357610ee361164f565b81604052809350858152868686011115610efc57600080fd5b858560208301376000602087830101525050509392505050565b80356001600160a01b03811681146102ca57600080fd5b600060208284031215610f3e578081fd5b61045682610f16565b60008060408385031215610f59578081fd5b610f6283610f16565b9150610f7060208401610f16565b90509250929050565b600080600060608486031215610f8d578081fd5b610f9684610f16565b9250610fa460208501610f16565b9150604084013590509250925092565b60008060008060808587031215610fc9578081fd5b610fd285610f16565b9350610fe060208601610f16565b925060408501359150606085013567ffffffffffffffff811115611002578182fd5b8501601f81018713611012578182fd5b61102187823560208401610ea0565b91505092959194509250565b6000806040838503121561103f578182fd5b61104883610f16565b91506020830135801515811461105c578182fd5b809150509250929050565b60008060408385031215611079578182fd5b61108283610f16565b9150602083013567ffffffffffffffff81111561109d578182fd5b8301601f810185136110ad578182fd5b6110bc85823560208401610ea0565b9150509250929050565b600080604083850312156110d8578182fd5b6110e183610f16565b946020939093013593505050565b600060208284031215611100578081fd5b813561045681611665565b60006020828403121561111c578081fd5b815161045681611665565b600060208284031215611138578081fd5b5035919050565b6000815180845261115781602086016020860161158d565b601f01601f19169290920160200192915050565b6000835161117d81846020880161158d565b83519083019061119181836020880161158d565b01949350505050565b6001600160a01b0391909116815260200190565b6001600160a01b03858116825284166020820152604081018390526080606082018190526000906111e19083018461113f565b9695505050505050565b901515815260200190565b600060208252610456602083018461113f565b60208082526032908201527f4552433732313a207472616e7366657220746f206e6f6e20455243373231526560408201527131b2b4bb32b91034b6b83632b6b2b73a32b960711b606082015260800190565b60208082526025908201527f4552433732313a207472616e736665722066726f6d20696e636f72726563742060408201526437bbb732b960d91b606082015260800190565b6020808252601c908201527f4552433732313a20746f6b656e20616c7265616479206d696e74656400000000604082015260600190565b60208082526024908201527f4552433732313a207472616e7366657220746f20746865207a65726f206164646040820152637265737360e01b606082015260800190565b60208082526019908201527f4552433732313a20617070726f766520746f2063616c6c657200000000000000604082015260600190565b60208082526029908201527f4552433732313a2061646472657373207a65726f206973206e6f7420612076616040820152683634b21037bbb732b960b91b606082015260800190565b6020808252602e908201527f45524337323155524953746f726167653a2055524920736574206f66206e6f6e60408201526d32bc34b9ba32b73a103a37b5b2b760911b606082015260800190565b6020808252603e908201527f4552433732313a20617070726f76652063616c6c6572206973206e6f7420746f60408201527f6b656e206f776e6572206e6f7220617070726f76656420666f7220616c6c0000606082015260800190565b6020808252818101527f4552433732313a206d696e7420746f20746865207a65726f2061646472657373604082015260600190565b60208082526018908201527f4552433732313a20696e76616c696420746f6b656e2049440000000000000000604082015260600190565b60208082526021908201527f4552433732313a20617070726f76616c20746f2063757272656e74206f776e656040820152603960f91b606082015260800190565b6020808252602e908201527f4552433732313a2063616c6c6572206973206e6f7420746f6b656e206f776e6560408201526d1c881b9bdc88185c1c1c9bdd995960921b606082015260800190565b90815260200190565b6000821982111561155d5761155d611623565b500190565b60008261157157611571611639565b500490565b60008282101561158857611588611623565b500390565b60005b838110156115a8578181015183820152602001611590565b838111156105a25750506000910152565b6002810460018216806115cd57607f821691505b602082108114156115ee57634e487b7160e01b600052602260045260246000fd5b50919050565b600060001982141561160857611608611623565b5060010190565b60008261161e5761161e611639565b500690565b634e487b7160e01b600052601160045260246000fd5b634e487b7160e01b600052601260045260246000fd5b634e487b7160e01b600052604160045260246000fd5b6001600160e01b03198116811461071957600080fdfea264697066735822122039430467e7eaf550f1b35febd6dfd758551a931c174286b900198eab53f71da764736f6c63430008010033",
  "immutableReferences": {},
  "source": "//Contract based on [https://docs.openzeppelin.com/contracts/3.x/erc721](https://docs.openzeppelin.com/contracts/3.x/erc721)\r\n// SPDX-License-Identifier: MIT\r\npragma solidity ^0.8.1;\r\n\r\nimport \"@openzeppelin/contracts/token/ERC721/ERC721.sol\";\r\nimport \"@openzeppelin/contracts/utils/Counters.sol\";\r\nimport \"@openzeppelin/contracts/token/ERC721/extensions/ERC721URIStorage.sol\";\r\n\r\ncontract propNFT is ERC721URIStorage {\r\n    using Counters for Counters.Counter;\r\n    Counters.Counter public _tokenIds;\r\n    constructor() ERC721(\"propNFT\", \"propNFT\") {}\r\n\r\n    function mintandApproveNFT(address recipient, string memory tokenURI)\r\n        public\r\n        returns (uint256)\r\n    {\r\n        \r\n        uint256 newItemId = _tokenIds.current();\r\n        _mint(recipient, newItemId);\r\n        _tokenIds.increment();\r\n        //approve(mortgagecontract,newItemId);\r\n        //approve(auctionContract,newItemId);\r\n        _setTokenURI(newItemId, tokenURI);\r\n\r\n        return newItemId;\r\n    }\r\n\r\n    function approveContract(address contractToApprove,uint tokenId)public\r\n    {\r\n        approve(contractToApprove,tokenId);\r\n    }\r\n\r\n    function transferFromOwnerToMortgager(address from, address to, uint tokenId)public\r\n    {\r\n        transferFrom(from,to,tokenId);\r\n    }\r\n\r\n    function transferFromMortgagerToTC(address from, address to, uint tokenId)public\r\n    {\r\n        transferFrom(from,to,tokenId);\r\n    }\r\n\r\n    function transferFromTCToMortgager(address from, address to, uint tokenId)public\r\n    {\r\n        transferFrom(from,to,tokenId);\r\n    }\r\n}",
  "sourcePath": "D:\\ETHINdia\\NFT_DAPP\\client\\contracts\\propNFT.sol",
  "compiler": {
    "name": "solc",
    "version": "0.8.1+commit.df193b15.Emscripten.clang"
  },
  "schemaVersion": "3.4.11",
  "updatedAt": "2022-12-03T03:17:49.583Z",
  "networkType": "ethereum",
  "devdoc": {
    "kind": "dev",
    "methods": {
      "approve(address,uint256)": {
        "details": "See {IERC721-approve}."
      },
      "balanceOf(address)": {
        "details": "See {IERC721-balanceOf}."
      },
      "getApproved(uint256)": {
        "details": "See {IERC721-getApproved}."
      },
      "isApprovedForAll(address,address)": {
        "details": "See {IERC721-isApprovedForAll}."
      },
      "name()": {
        "details": "See {IERC721Metadata-name}."
      },
      "ownerOf(uint256)": {
        "details": "See {IERC721-ownerOf}."
      },
      "safeTransferFrom(address,address,uint256)": {
        "details": "See {IERC721-safeTransferFrom}."
      },
      "safeTransferFrom(address,address,uint256,bytes)": {
        "details": "See {IERC721-safeTransferFrom}."
      },
      "setApprovalForAll(address,bool)": {
        "details": "See {IERC721-setApprovalForAll}."
      },
      "supportsInterface(bytes4)": {
        "details": "See {IERC165-supportsInterface}."
      },
      "symbol()": {
        "details": "See {IERC721Metadata-symbol}."
      },
      "tokenURI(uint256)": {
        "details": "See {IERC721Metadata-tokenURI}."
      },
      "transferFrom(address,address,uint256)": {
        "details": "See {IERC721-transferFrom}."
      }
    },
    "version": 1
  },
  "userdoc": {
    "kind": "user",
    "methods": {},
    "version": 1
  }
}